{
	"contracts/Lottery.sol": {
		"Random": {
			"abi": [
				{
					"inputs": [
						{
							"internalType": "string",
							"name": "_key1",
							"type": "string"
						},
						{
							"internalType": "uint256",
							"name": "_key2",
							"type": "uint256"
						}
					],
					"stateMutability": "nonpayable",
					"type": "constructor"
				},
				{
					"anonymous": false,
					"inputs": [
						{
							"indexed": true,
							"internalType": "address",
							"name": "sender",
							"type": "address"
						},
						{
							"indexed": false,
							"internalType": "uint256",
							"name": "payment",
							"type": "uint256"
						}
					],
					"name": "PaidAddress",
					"type": "event"
				},
				{
					"anonymous": false,
					"inputs": [
						{
							"indexed": true,
							"internalType": "address",
							"name": "winner",
							"type": "address"
						}
					],
					"name": "WinnerAddress",
					"type": "event"
				},
				{
					"inputs": [],
					"name": "getRound",
					"outputs": [
						{
							"internalType": "uint256",
							"name": "",
							"type": "uint256"
						}
					],
					"stateMutability": "view",
					"type": "function"
				},
				{
					"inputs": [],
					"name": "getSecretKey",
					"outputs": [
						{
							"internalType": "string",
							"name": "",
							"type": "string"
						},
						{
							"internalType": "uint256",
							"name": "",
							"type": "uint256"
						}
					],
					"stateMutability": "view",
					"type": "function"
				},
				{
					"inputs": [],
					"name": "getWinnerNumber",
					"outputs": [
						{
							"internalType": "uint256",
							"name": "",
							"type": "uint256"
						}
					],
					"stateMutability": "view",
					"type": "function"
				},
				{
					"inputs": [],
					"name": "getbalance",
					"outputs": [
						{
							"internalType": "uint256",
							"name": "",
							"type": "uint256"
						}
					],
					"stateMutability": "view",
					"type": "function"
				},
				{
					"inputs": [],
					"name": "owner",
					"outputs": [
						{
							"internalType": "address",
							"name": "",
							"type": "address"
						}
					],
					"stateMutability": "view",
					"type": "function"
				},
				{
					"inputs": [
						{
							"internalType": "uint256",
							"name": "",
							"type": "uint256"
						},
						{
							"internalType": "address",
							"name": "",
							"type": "address"
						}
					],
					"name": "paidAddressList",
					"outputs": [
						{
							"internalType": "bool",
							"name": "",
							"type": "bool"
						}
					],
					"stateMutability": "view",
					"type": "function"
				},
				{
					"inputs": [],
					"name": "playNumber",
					"outputs": [
						{
							"internalType": "uint256",
							"name": "",
							"type": "uint256"
						}
					],
					"stateMutability": "view",
					"type": "function"
				},
				{
					"inputs": [],
					"name": "round",
					"outputs": [
						{
							"internalType": "uint256",
							"name": "",
							"type": "uint256"
						}
					],
					"stateMutability": "view",
					"type": "function"
				},
				{
					"inputs": [
						{
							"internalType": "string",
							"name": "_key1",
							"type": "string"
						},
						{
							"internalType": "uint256",
							"name": "_key2",
							"type": "uint256"
						}
					],
					"name": "setSecretKey",
					"outputs": [],
					"stateMutability": "nonpayable",
					"type": "function"
				},
				{
					"stateMutability": "payable",
					"type": "receive"
				}
			],
			"devdoc": {
				"author": "DasSoo",
				"kind": "dev",
				"methods": {},
				"stateVariables": {
					"owner": {
						"details": "부가적 기능은 아래 함수에 구현했고 배포자만 관리할 수 있는것은 modifier 구현"
					}
				},
				"title": "랜덤함수 게임 기본",
				"version": 1
			},
			"evm": {
				"assembly": "    /* \"contracts/Lottery.sol\":946:3779  contract Random {\r... */\n  mstore(0x40, 0x80)\n    /* \"contracts/Lottery.sol\":1292:1293  0 */\n  0x00\n    /* \"contracts/Lottery.sol\":1264:1293  uint private winnerNumber = 0 */\n  0x01\n  sstore\n    /* \"contracts/Lottery.sol\":1370:1371  1 */\n  0x01\n    /* \"contracts/Lottery.sol\":1350:1371  uint public round = 1 */\n  0x04\n  sstore\n    /* \"contracts/Lottery.sol\":1403:1404  0 */\n  0x00\n    /* \"contracts/Lottery.sol\":1378:1404  uint public playNumber = 0 */\n  0x05\n  sstore\n    /* \"contracts/Lottery.sol\":1714:1882  constructor(string memory _key1, uint _key2) {\r... */\n  callvalue\n  dup1\n  iszero\n  tag_1\n  jumpi\n  0x00\n  dup1\n  revert\ntag_1:\n  pop\n  mload(0x40)\n  sub(codesize, bytecodeSize)\n  dup1\n  bytecodeSize\n  dup4\n  codecopy\n  dup2\n  dup2\n  add\n  0x40\n  mstore\n  dup2\n  add\n  swap1\n  tag_2\n  swap2\n  swap1\n  tag_3\n  jump\t// in\ntag_2:\n    /* \"contracts/Lottery.sol\":1778:1788  msg.sender */\n  caller\n    /* \"contracts/Lottery.sol\":1770:1775  owner */\n  0x00\n  dup1\n    /* \"contracts/Lottery.sol\":1770:1788  owner = msg.sender */\n  0x0100\n  exp\n  dup2\n  sload\n  dup2\n  0xffffffffffffffffffffffffffffffffffffffff\n  mul\n  not\n  and\n  swap1\n  dup4\n  0xffffffffffffffffffffffffffffffffffffffff\n  and\n  mul\n  or\n  swap1\n  sstore\n  pop\n    /* \"contracts/Lottery.sol\":1806:1811  _key1 */\n  dup2\n    /* \"contracts/Lottery.sol\":1799:1803  key1 */\n  0x02\n    /* \"contracts/Lottery.sol\":1799:1811  key1 = _key1 */\n  swap1\n  dup1\n  mload\n  swap1\n  0x20\n  add\n  swap1\n  tag_6\n  swap3\n  swap2\n  swap1\n  tag_7\n  jump\t// in\ntag_6:\n  pop\n    /* \"contracts/Lottery.sol\":1829:1834  _key2 */\n  dup1\n    /* \"contracts/Lottery.sol\":1822:1826  key2 */\n  0x03\n    /* \"contracts/Lottery.sol\":1822:1834  key2 = _key2 */\n  dup2\n  swap1\n  sstore\n  pop\n    /* \"contracts/Lottery.sol\":1860:1874  randomNumber() */\n  tag_8\n    /* \"contracts/Lottery.sol\":1860:1872  randomNumber */\n  shl(0x20, tag_9)\n    /* \"contracts/Lottery.sol\":1860:1874  randomNumber() */\n  0x20\n  shr\n  jump\t// in\ntag_8:\n    /* \"contracts/Lottery.sol\":1845:1857  winnerNumber */\n  0x01\n    /* \"contracts/Lottery.sol\":1845:1874  winnerNumber = randomNumber() */\n  dup2\n  swap1\n  sstore\n  pop\n    /* \"contracts/Lottery.sol\":1714:1882  constructor(string memory _key1, uint _key2) {\r... */\n  pop\n  pop\n    /* \"contracts/Lottery.sol\":946:3779  contract Random {\r... */\n  jump(tag_10)\n    /* \"contracts/Lottery.sol\":2774:2951  function randomNumber() private view returns(uint) {\r... */\ntag_9:\n    /* \"contracts/Lottery.sol\":2819:2823  uint */\n  0x00\n    /* \"contracts/Lottery.sol\":2836:2844  uint num */\n  dup1\n    /* \"contracts/Lottery.sol\":2911:2923  block.number */\n  number\n    /* \"contracts/Lottery.sol\":2891:2906  block.timestamp */\n  timestamp\n    /* \"contracts/Lottery.sol\":2883:2887  key2 */\n  sload(0x03)\n    /* \"contracts/Lottery.sol\":2873:2877  key1 */\n  0x02\n    /* \"contracts/Lottery.sol\":2862:2878  abi.encode(key1) */\n  add(0x20, mload(0x40))\n  tag_12\n  swap2\n  swap1\n  tag_13\n  jump\t// in\ntag_12:\n  mload(0x40)\n  0x20\n  dup2\n  dup4\n  sub\n  sub\n  dup2\n  mstore\n  swap1\n  0x40\n  mstore\n    /* \"contracts/Lottery.sol\":2852:2879  keccak256(abi.encode(key1)) */\n  dup1\n  mload\n  swap1\n  0x20\n  add\n  keccak256\n    /* \"contracts/Lottery.sol\":2847:2880  uint(keccak256(abi.encode(key1))) */\n  0x00\n  shr\n    /* \"contracts/Lottery.sol\":2847:2887  uint(keccak256(abi.encode(key1))) + key2 */\n  tag_14\n  swap2\n  swap1\n  tag_15\n  jump\t// in\ntag_14:\n    /* \"contracts/Lottery.sol\":2847:2907  uint(keccak256(abi.encode(key1))) + key2 + (block.timestamp) */\n  tag_16\n  swap2\n  swap1\n  tag_15\n  jump\t// in\ntag_16:\n    /* \"contracts/Lottery.sol\":2847:2924  uint(keccak256(abi.encode(key1))) + key2 + (block.timestamp) + (block.number) */\n  tag_17\n  swap2\n  swap1\n  tag_15\n  jump\t// in\ntag_17:\n    /* \"contracts/Lottery.sol\":2836:2924  uint num = uint(keccak256(abi.encode(key1))) + key2 + (block.timestamp) + (block.number) */\n  swap1\n  pop\n    /* \"contracts/Lottery.sol\":2942:2943  2 */\n  0x02\n    /* \"contracts/Lottery.sol\":2935:2943  return 2 */\n  swap2\n  pop\n  pop\n    /* \"contracts/Lottery.sol\":2774:2951  function randomNumber() private view returns(uint) {\r... */\n  swap1\n  jump\t// out\n    /* \"contracts/Lottery.sol\":946:3779  contract Random {\r... */\ntag_7:\n  dup3\n  dup1\n  sload\n  tag_18\n  swap1\n  tag_19\n  jump\t// in\ntag_18:\n  swap1\n  0x00\n  mstore\n  keccak256(0x00, 0x20)\n  swap1\n  0x1f\n  add\n  0x20\n  swap1\n  div\n  dup2\n  add\n  swap3\n  dup3\n  tag_21\n  jumpi\n  0x00\n  dup6\n  sstore\n  jump(tag_20)\ntag_21:\n  dup3\n  0x1f\n  lt\n  tag_22\n  jumpi\n  dup1\n  mload\n  not(0xff)\n  and\n  dup4\n  dup1\n  add\n  or\n  dup6\n  sstore\n  jump(tag_20)\ntag_22:\n  dup3\n  dup1\n  add\n  0x01\n  add\n  dup6\n  sstore\n  dup3\n  iszero\n  tag_20\n  jumpi\n  swap2\n  dup3\n  add\ntag_23:\n  dup3\n  dup2\n  gt\n  iszero\n  tag_24\n  jumpi\n  dup3\n  mload\n  dup3\n  sstore\n  swap2\n  0x20\n  add\n  swap2\n  swap1\n  0x01\n  add\n  swap1\n  jump(tag_23)\ntag_24:\ntag_20:\n  pop\n  swap1\n  pop\n  tag_25\n  swap2\n  swap1\n  tag_26\n  jump\t// in\ntag_25:\n  pop\n  swap1\n  jump\t// out\ntag_26:\ntag_27:\n  dup1\n  dup3\n  gt\n  iszero\n  tag_28\n  jumpi\n  0x00\n  dup2\n  0x00\n  swap1\n  sstore\n  pop\n  0x01\n  add\n  jump(tag_27)\ntag_28:\n  pop\n  swap1\n  jump\t// out\n    /* \"#utility.yul\":7:360   */\ntag_30:\n  0x00\n    /* \"#utility.yul\":121:186   */\n  tag_32\n    /* \"#utility.yul\":136:185   */\n  tag_33\n    /* \"#utility.yul\":178:184   */\n  dup5\n    /* \"#utility.yul\":136:185   */\n  tag_34\n  jump\t// in\ntag_33:\n    /* \"#utility.yul\":121:186   */\n  tag_35\n  jump\t// in\ntag_32:\n    /* \"#utility.yul\":112:186   */\n  swap1\n  pop\n    /* \"#utility.yul\":209:215   */\n  dup3\n    /* \"#utility.yul\":202:207   */\n  dup2\n    /* \"#utility.yul\":195:216   */\n  mstore\n    /* \"#utility.yul\":247:251   */\n  0x20\n    /* \"#utility.yul\":240:245   */\n  dup2\n    /* \"#utility.yul\":236:252   */\n  add\n    /* \"#utility.yul\":285:288   */\n  dup5\n    /* \"#utility.yul\":276:282   */\n  dup5\n    /* \"#utility.yul\":271:274   */\n  dup5\n    /* \"#utility.yul\":267:283   */\n  add\n    /* \"#utility.yul\":264:289   */\n  gt\n    /* \"#utility.yul\":261:263   */\n  iszero\n  tag_36\n  jumpi\n    /* \"#utility.yul\":302:303   */\n  0x00\n    /* \"#utility.yul\":299:300   */\n  dup1\n    /* \"#utility.yul\":292:304   */\n  revert\n    /* \"#utility.yul\":261:263   */\ntag_36:\n    /* \"#utility.yul\":315:354   */\n  tag_37\n    /* \"#utility.yul\":347:353   */\n  dup5\n    /* \"#utility.yul\":342:345   */\n  dup3\n    /* \"#utility.yul\":337:340   */\n  dup6\n    /* \"#utility.yul\":315:354   */\n  tag_38\n  jump\t// in\ntag_37:\n    /* \"#utility.yul\":102:360   */\n  pop\n  swap4\n  swap3\n  pop\n  pop\n  pop\n  jump\t// out\n    /* \"#utility.yul\":380:668   */\ntag_39:\n  0x00\n    /* \"#utility.yul\":496:499   */\n  dup3\n    /* \"#utility.yul\":489:493   */\n  0x1f\n    /* \"#utility.yul\":481:487   */\n  dup4\n    /* \"#utility.yul\":477:494   */\n  add\n    /* \"#utility.yul\":473:500   */\n  slt\n    /* \"#utility.yul\":463:465   */\n  tag_41\n  jumpi\n    /* \"#utility.yul\":514:515   */\n  0x00\n    /* \"#utility.yul\":511:512   */\n  dup1\n    /* \"#utility.yul\":504:516   */\n  revert\n    /* \"#utility.yul\":463:465   */\ntag_41:\n    /* \"#utility.yul\":547:553   */\n  dup2\n    /* \"#utility.yul\":541:554   */\n  mload\n    /* \"#utility.yul\":572:662   */\n  tag_42\n    /* \"#utility.yul\":658:661   */\n  dup5\n    /* \"#utility.yul\":650:656   */\n  dup3\n    /* \"#utility.yul\":643:647   */\n  0x20\n    /* \"#utility.yul\":635:641   */\n  dup7\n    /* \"#utility.yul\":631:648   */\n  add\n    /* \"#utility.yul\":572:662   */\n  tag_30\n  jump\t// in\ntag_42:\n    /* \"#utility.yul\":563:662   */\n  swap2\n  pop\n    /* \"#utility.yul\":453:668   */\n  pop\n  swap3\n  swap2\n  pop\n  pop\n  jump\t// out\n    /* \"#utility.yul\":674:817   */\ntag_43:\n  0x00\n    /* \"#utility.yul\":762:768   */\n  dup2\n    /* \"#utility.yul\":756:769   */\n  mload\n    /* \"#utility.yul\":747:769   */\n  swap1\n  pop\n    /* \"#utility.yul\":778:811   */\n  tag_45\n    /* \"#utility.yul\":805:810   */\n  dup2\n    /* \"#utility.yul\":778:811   */\n  tag_46\n  jump\t// in\ntag_45:\n    /* \"#utility.yul\":737:817   */\n  swap3\n  swap2\n  pop\n  pop\n  jump\t// out\n    /* \"#utility.yul\":823:1369   */\ntag_3:\n  0x00\n  dup1\n    /* \"#utility.yul\":969:971   */\n  0x40\n    /* \"#utility.yul\":957:966   */\n  dup4\n    /* \"#utility.yul\":948:955   */\n  dup6\n    /* \"#utility.yul\":944:967   */\n  sub\n    /* \"#utility.yul\":940:972   */\n  slt\n    /* \"#utility.yul\":937:939   */\n  iszero\n  tag_48\n  jumpi\n    /* \"#utility.yul\":985:986   */\n  0x00\n    /* \"#utility.yul\":982:983   */\n  dup1\n    /* \"#utility.yul\":975:987   */\n  revert\n    /* \"#utility.yul\":937:939   */\ntag_48:\n    /* \"#utility.yul\":1049:1050   */\n  0x00\n    /* \"#utility.yul\":1038:1047   */\n  dup4\n    /* \"#utility.yul\":1034:1051   */\n  add\n    /* \"#utility.yul\":1028:1052   */\n  mload\n    /* \"#utility.yul\":1079:1097   */\n  0xffffffffffffffff\n    /* \"#utility.yul\":1071:1077   */\n  dup2\n    /* \"#utility.yul\":1068:1098   */\n  gt\n    /* \"#utility.yul\":1065:1067   */\n  iszero\n  tag_49\n  jumpi\n    /* \"#utility.yul\":1111:1112   */\n  0x00\n    /* \"#utility.yul\":1108:1109   */\n  dup1\n    /* \"#utility.yul\":1101:1113   */\n  revert\n    /* \"#utility.yul\":1065:1067   */\ntag_49:\n    /* \"#utility.yul\":1139:1213   */\n  tag_50\n    /* \"#utility.yul\":1205:1212   */\n  dup6\n    /* \"#utility.yul\":1196:1202   */\n  dup3\n    /* \"#utility.yul\":1185:1194   */\n  dup7\n    /* \"#utility.yul\":1181:1203   */\n  add\n    /* \"#utility.yul\":1139:1213   */\n  tag_39\n  jump\t// in\ntag_50:\n    /* \"#utility.yul\":1129:1213   */\n  swap3\n  pop\n    /* \"#utility.yul\":999:1223   */\n  pop\n    /* \"#utility.yul\":1262:1264   */\n  0x20\n    /* \"#utility.yul\":1288:1352   */\n  tag_51\n    /* \"#utility.yul\":1344:1351   */\n  dup6\n    /* \"#utility.yul\":1335:1341   */\n  dup3\n    /* \"#utility.yul\":1324:1333   */\n  dup7\n    /* \"#utility.yul\":1320:1342   */\n  add\n    /* \"#utility.yul\":1288:1352   */\n  tag_43\n  jump\t// in\ntag_51:\n    /* \"#utility.yul\":1278:1352   */\n  swap2\n  pop\n    /* \"#utility.yul\":1233:1362   */\n  pop\n    /* \"#utility.yul\":927:1369   */\n  swap3\n  pop\n  swap3\n  swap1\n  pop\n  jump\t// out\n    /* \"#utility.yul\":1399:2201   */\ntag_52:\n  0x00\n    /* \"#utility.yul\":1521:1526   */\n  dup2\n    /* \"#utility.yul\":1515:1527   */\n  sload\n    /* \"#utility.yul\":1550:1586   */\n  tag_54\n    /* \"#utility.yul\":1576:1585   */\n  dup2\n    /* \"#utility.yul\":1550:1586   */\n  tag_19\n  jump\t// in\ntag_54:\n    /* \"#utility.yul\":1602:1673   */\n  tag_55\n    /* \"#utility.yul\":1666:1672   */\n  dup2\n    /* \"#utility.yul\":1661:1664   */\n  dup7\n    /* \"#utility.yul\":1602:1673   */\n  tag_56\n  jump\t// in\ntag_55:\n    /* \"#utility.yul\":1595:1673   */\n  swap5\n  pop\n    /* \"#utility.yul\":1704:1705   */\n  0x01\n    /* \"#utility.yul\":1693:1702   */\n  dup3\n    /* \"#utility.yul\":1689:1706   */\n  and\n    /* \"#utility.yul\":1720:1721   */\n  0x00\n    /* \"#utility.yul\":1715:1850   */\n  dup2\n  eq\n  tag_58\n  jumpi\n    /* \"#utility.yul\":1864:1865   */\n  0x01\n    /* \"#utility.yul\":1859:2195   */\n  dup2\n  eq\n  tag_59\n  jumpi\n    /* \"#utility.yul\":1682:2195   */\n  jump(tag_57)\n    /* \"#utility.yul\":1715:1850   */\ntag_58:\n    /* \"#utility.yul\":1799:1803   */\n  0xff\n    /* \"#utility.yul\":1795:1804   */\n  not\n    /* \"#utility.yul\":1784:1793   */\n  dup4\n    /* \"#utility.yul\":1780:1805   */\n  and\n    /* \"#utility.yul\":1775:1778   */\n  dup7\n    /* \"#utility.yul\":1768:1806   */\n  mstore\n    /* \"#utility.yul\":1835:1839   */\n  0x20\n    /* \"#utility.yul\":1830:1833   */\n  dup7\n    /* \"#utility.yul\":1826:1840   */\n  add\n    /* \"#utility.yul\":1819:1840   */\n  swap4\n  pop\n    /* \"#utility.yul\":1715:1850   */\n  jump(tag_57)\n    /* \"#utility.yul\":1859:2195   */\ntag_59:\n    /* \"#utility.yul\":1926:1964   */\n  tag_60\n    /* \"#utility.yul\":1958:1963   */\n  dup6\n    /* \"#utility.yul\":1926:1964   */\n  tag_61\n  jump\t// in\ntag_60:\n    /* \"#utility.yul\":1986:1987   */\n  0x00\n    /* \"#utility.yul\":2000:2154   */\ntag_62:\n    /* \"#utility.yul\":2014:2020   */\n  dup4\n    /* \"#utility.yul\":2011:2012   */\n  dup2\n    /* \"#utility.yul\":2008:2021   */\n  lt\n    /* \"#utility.yul\":2000:2154   */\n  iszero\n  tag_64\n  jumpi\n    /* \"#utility.yul\":2088:2095   */\n  dup2\n    /* \"#utility.yul\":2082:2096   */\n  sload\n    /* \"#utility.yul\":2078:2079   */\n  dup2\n    /* \"#utility.yul\":2073:2076   */\n  dup10\n    /* \"#utility.yul\":2069:2080   */\n  add\n    /* \"#utility.yul\":2062:2097   */\n  mstore\n    /* \"#utility.yul\":2138:2139   */\n  0x01\n    /* \"#utility.yul\":2129:2136   */\n  dup3\n    /* \"#utility.yul\":2125:2140   */\n  add\n    /* \"#utility.yul\":2114:2140   */\n  swap2\n  pop\n    /* \"#utility.yul\":2036:2040   */\n  0x20\n    /* \"#utility.yul\":2033:2034   */\n  dup2\n    /* \"#utility.yul\":2029:2041   */\n  add\n    /* \"#utility.yul\":2024:2041   */\n  swap1\n  pop\n    /* \"#utility.yul\":2000:2154   */\n  jump(tag_62)\ntag_64:\n    /* \"#utility.yul\":2183:2184   */\n  dup1\n    /* \"#utility.yul\":2178:2181   */\n  dup9\n    /* \"#utility.yul\":2174:2185   */\n  add\n    /* \"#utility.yul\":2167:2185   */\n  swap6\n  pop\n    /* \"#utility.yul\":1866:2195   */\n  pop\n  pop\n    /* \"#utility.yul\":1682:2195   */\ntag_57:\n  pop\n    /* \"#utility.yul\":1488:2201   */\n  pop\n  pop\n  swap3\n  swap2\n  pop\n  pop\n  jump\t// out\n    /* \"#utility.yul\":2207:2514   */\ntag_13:\n  0x00\n    /* \"#utility.yul\":2355:2357   */\n  0x20\n    /* \"#utility.yul\":2344:2353   */\n  dup3\n    /* \"#utility.yul\":2340:2358   */\n  add\n    /* \"#utility.yul\":2332:2358   */\n  swap1\n  pop\n    /* \"#utility.yul\":2404:2413   */\n  dup2\n    /* \"#utility.yul\":2398:2402   */\n  dup2\n    /* \"#utility.yul\":2394:2414   */\n  sub\n    /* \"#utility.yul\":2390:2391   */\n  0x00\n    /* \"#utility.yul\":2379:2388   */\n  dup4\n    /* \"#utility.yul\":2375:2392   */\n  add\n    /* \"#utility.yul\":2368:2415   */\n  mstore\n    /* \"#utility.yul\":2432:2507   */\n  tag_66\n    /* \"#utility.yul\":2502:2506   */\n  dup2\n    /* \"#utility.yul\":2493:2499   */\n  dup5\n    /* \"#utility.yul\":2432:2507   */\n  tag_52\n  jump\t// in\ntag_66:\n    /* \"#utility.yul\":2424:2507   */\n  swap1\n  pop\n    /* \"#utility.yul\":2322:2514   */\n  swap3\n  swap2\n  pop\n  pop\n  jump\t// out\n    /* \"#utility.yul\":2520:2803   */\ntag_35:\n  0x00\n    /* \"#utility.yul\":2586:2588   */\n  0x40\n    /* \"#utility.yul\":2580:2589   */\n  mload\n    /* \"#utility.yul\":2570:2589   */\n  swap1\n  pop\n    /* \"#utility.yul\":2628:2632   */\n  dup2\n    /* \"#utility.yul\":2620:2626   */\n  dup2\n    /* \"#utility.yul\":2616:2633   */\n  add\n    /* \"#utility.yul\":2735:2741   */\n  dup2\n    /* \"#utility.yul\":2723:2733   */\n  dup2\n    /* \"#utility.yul\":2720:2742   */\n  lt\n    /* \"#utility.yul\":2699:2717   */\n  0xffffffffffffffff\n    /* \"#utility.yul\":2687:2697   */\n  dup3\n    /* \"#utility.yul\":2684:2718   */\n  gt\n    /* \"#utility.yul\":2681:2743   */\n  or\n    /* \"#utility.yul\":2678:2680   */\n  iszero\n  tag_68\n  jumpi\n    /* \"#utility.yul\":2746:2764   */\n  tag_69\n  tag_70\n  jump\t// in\ntag_69:\n    /* \"#utility.yul\":2678:2680   */\ntag_68:\n    /* \"#utility.yul\":2786:2796   */\n  dup1\n    /* \"#utility.yul\":2782:2784   */\n  0x40\n    /* \"#utility.yul\":2775:2797   */\n  mstore\n    /* \"#utility.yul\":2560:2803   */\n  pop\n  swap2\n  swap1\n  pop\n  jump\t// out\n    /* \"#utility.yul\":2809:3141   */\ntag_34:\n  0x00\n    /* \"#utility.yul\":2961:2979   */\n  0xffffffffffffffff\n    /* \"#utility.yul\":2953:2959   */\n  dup3\n    /* \"#utility.yul\":2950:2980   */\n  gt\n    /* \"#utility.yul\":2947:2949   */\n  iszero\n  tag_72\n  jumpi\n    /* \"#utility.yul\":2983:3001   */\n  tag_73\n  tag_70\n  jump\t// in\ntag_73:\n    /* \"#utility.yul\":2947:2949   */\ntag_72:\n    /* \"#utility.yul\":3068:3072   */\n  0x1f\n    /* \"#utility.yul\":3064:3073   */\n  not\n    /* \"#utility.yul\":3057:3061   */\n  0x1f\n    /* \"#utility.yul\":3049:3055   */\n  dup4\n    /* \"#utility.yul\":3045:3062   */\n  add\n    /* \"#utility.yul\":3041:3074   */\n  and\n    /* \"#utility.yul\":3033:3074   */\n  swap1\n  pop\n    /* \"#utility.yul\":3129:3133   */\n  0x20\n    /* \"#utility.yul\":3123:3127   */\n  dup2\n    /* \"#utility.yul\":3119:3134   */\n  add\n    /* \"#utility.yul\":3111:3134   */\n  swap1\n  pop\n    /* \"#utility.yul\":2876:3141   */\n  swap2\n  swap1\n  pop\n  jump\t// out\n    /* \"#utility.yul\":3147:3288   */\ntag_61:\n  0x00\n    /* \"#utility.yul\":3219:3222   */\n  dup2\n    /* \"#utility.yul\":3211:3222   */\n  swap1\n  pop\n    /* \"#utility.yul\":3242:3245   */\n  dup2\n    /* \"#utility.yul\":3239:3240   */\n  0x00\n    /* \"#utility.yul\":3232:3246   */\n  mstore\n    /* \"#utility.yul\":3276:3280   */\n  0x20\n    /* \"#utility.yul\":3273:3274   */\n  0x00\n    /* \"#utility.yul\":3263:3281   */\n  keccak256\n    /* \"#utility.yul\":3255:3281   */\n  swap1\n  pop\n    /* \"#utility.yul\":3201:3288   */\n  swap2\n  swap1\n  pop\n  jump\t// out\n    /* \"#utility.yul\":3294:3463   */\ntag_56:\n  0x00\n    /* \"#utility.yul\":3412:3418   */\n  dup3\n    /* \"#utility.yul\":3407:3410   */\n  dup3\n    /* \"#utility.yul\":3400:3419   */\n  mstore\n    /* \"#utility.yul\":3452:3456   */\n  0x20\n    /* \"#utility.yul\":3447:3450   */\n  dup3\n    /* \"#utility.yul\":3443:3457   */\n  add\n    /* \"#utility.yul\":3428:3457   */\n  swap1\n  pop\n    /* \"#utility.yul\":3390:3463   */\n  swap3\n  swap2\n  pop\n  pop\n  jump\t// out\n    /* \"#utility.yul\":3469:3774   */\ntag_15:\n  0x00\n    /* \"#utility.yul\":3528:3548   */\n  tag_77\n    /* \"#utility.yul\":3546:3547   */\n  dup3\n    /* \"#utility.yul\":3528:3548   */\n  tag_78\n  jump\t// in\ntag_77:\n    /* \"#utility.yul\":3523:3548   */\n  swap2\n  pop\n    /* \"#utility.yul\":3562:3582   */\n  tag_79\n    /* \"#utility.yul\":3580:3581   */\n  dup4\n    /* \"#utility.yul\":3562:3582   */\n  tag_78\n  jump\t// in\ntag_79:\n    /* \"#utility.yul\":3557:3582   */\n  swap3\n  pop\n    /* \"#utility.yul\":3716:3717   */\n  dup3\n    /* \"#utility.yul\":3648:3714   */\n  0xffffffffffffffffffffffffffffffffffffffffffffffffffffffffffffffff\n    /* \"#utility.yul\":3644:3718   */\n  sub\n    /* \"#utility.yul\":3641:3642   */\n  dup3\n    /* \"#utility.yul\":3638:3719   */\n  gt\n    /* \"#utility.yul\":3635:3637   */\n  iszero\n  tag_80\n  jumpi\n    /* \"#utility.yul\":3722:3740   */\n  tag_81\n  tag_82\n  jump\t// in\ntag_81:\n    /* \"#utility.yul\":3635:3637   */\ntag_80:\n    /* \"#utility.yul\":3766:3767   */\n  dup3\n    /* \"#utility.yul\":3763:3764   */\n  dup3\n    /* \"#utility.yul\":3759:3768   */\n  add\n    /* \"#utility.yul\":3752:3768   */\n  swap1\n  pop\n    /* \"#utility.yul\":3513:3774   */\n  swap3\n  swap2\n  pop\n  pop\n  jump\t// out\n    /* \"#utility.yul\":3780:3857   */\ntag_78:\n  0x00\n    /* \"#utility.yul\":3846:3851   */\n  dup2\n    /* \"#utility.yul\":3835:3851   */\n  swap1\n  pop\n    /* \"#utility.yul\":3825:3857   */\n  swap2\n  swap1\n  pop\n  jump\t// out\n    /* \"#utility.yul\":3863:4170   */\ntag_38:\n    /* \"#utility.yul\":3931:3932   */\n  0x00\n    /* \"#utility.yul\":3941:4054   */\ntag_85:\n    /* \"#utility.yul\":3955:3961   */\n  dup4\n    /* \"#utility.yul\":3952:3953   */\n  dup2\n    /* \"#utility.yul\":3949:3962   */\n  lt\n    /* \"#utility.yul\":3941:4054   */\n  iszero\n  tag_87\n  jumpi\n    /* \"#utility.yul\":4040:4041   */\n  dup1\n    /* \"#utility.yul\":4035:4038   */\n  dup3\n    /* \"#utility.yul\":4031:4042   */\n  add\n    /* \"#utility.yul\":4025:4043   */\n  mload\n    /* \"#utility.yul\":4021:4022   */\n  dup2\n    /* \"#utility.yul\":4016:4019   */\n  dup5\n    /* \"#utility.yul\":4012:4023   */\n  add\n    /* \"#utility.yul\":4005:4044   */\n  mstore\n    /* \"#utility.yul\":3977:3979   */\n  0x20\n    /* \"#utility.yul\":3974:3975   */\n  dup2\n    /* \"#utility.yul\":3970:3980   */\n  add\n    /* \"#utility.yul\":3965:3980   */\n  swap1\n  pop\n    /* \"#utility.yul\":3941:4054   */\n  jump(tag_85)\ntag_87:\n    /* \"#utility.yul\":4072:4078   */\n  dup4\n    /* \"#utility.yul\":4069:4070   */\n  dup2\n    /* \"#utility.yul\":4066:4079   */\n  gt\n    /* \"#utility.yul\":4063:4065   */\n  iszero\n  tag_88\n  jumpi\n    /* \"#utility.yul\":4152:4153   */\n  0x00\n    /* \"#utility.yul\":4143:4149   */\n  dup5\n    /* \"#utility.yul\":4138:4141   */\n  dup5\n    /* \"#utility.yul\":4134:4150   */\n  add\n    /* \"#utility.yul\":4127:4154   */\n  mstore\n    /* \"#utility.yul\":4063:4065   */\ntag_88:\n    /* \"#utility.yul\":3912:4170   */\n  pop\n  pop\n  pop\n  pop\n  jump\t// out\n    /* \"#utility.yul\":4176:4496   */\ntag_19:\n  0x00\n    /* \"#utility.yul\":4257:4258   */\n  0x02\n    /* \"#utility.yul\":4251:4255   */\n  dup3\n    /* \"#utility.yul\":4247:4259   */\n  div\n    /* \"#utility.yul\":4237:4259   */\n  swap1\n  pop\n    /* \"#utility.yul\":4304:4305   */\n  0x01\n    /* \"#utility.yul\":4298:4302   */\n  dup3\n    /* \"#utility.yul\":4294:4306   */\n  and\n    /* \"#utility.yul\":4325:4343   */\n  dup1\n    /* \"#utility.yul\":4315:4317   */\n  tag_90\n  jumpi\n    /* \"#utility.yul\":4381:4385   */\n  0x7f\n    /* \"#utility.yul\":4373:4379   */\n  dup3\n    /* \"#utility.yul\":4369:4386   */\n  and\n    /* \"#utility.yul\":4359:4386   */\n  swap2\n  pop\n    /* \"#utility.yul\":4315:4317   */\ntag_90:\n    /* \"#utility.yul\":4443:4445   */\n  0x20\n    /* \"#utility.yul\":4435:4441   */\n  dup3\n    /* \"#utility.yul\":4432:4446   */\n  lt\n    /* \"#utility.yul\":4412:4430   */\n  dup2\n    /* \"#utility.yul\":4409:4447   */\n  eq\n    /* \"#utility.yul\":4406:4408   */\n  iszero\n  tag_91\n  jumpi\n    /* \"#utility.yul\":4462:4480   */\n  tag_92\n  tag_93\n  jump\t// in\ntag_92:\n    /* \"#utility.yul\":4406:4408   */\ntag_91:\n    /* \"#utility.yul\":4227:4496   */\n  pop\n  swap2\n  swap1\n  pop\n  jump\t// out\n    /* \"#utility.yul\":4502:4682   */\ntag_82:\n    /* \"#utility.yul\":4550:4627   */\n  0x4e487b7100000000000000000000000000000000000000000000000000000000\n    /* \"#utility.yul\":4547:4548   */\n  0x00\n    /* \"#utility.yul\":4540:4628   */\n  mstore\n    /* \"#utility.yul\":4647:4651   */\n  0x11\n    /* \"#utility.yul\":4644:4645   */\n  0x04\n    /* \"#utility.yul\":4637:4652   */\n  mstore\n    /* \"#utility.yul\":4671:4675   */\n  0x24\n    /* \"#utility.yul\":4668:4669   */\n  0x00\n    /* \"#utility.yul\":4661:4676   */\n  revert\n    /* \"#utility.yul\":4688:4868   */\ntag_93:\n    /* \"#utility.yul\":4736:4813   */\n  0x4e487b7100000000000000000000000000000000000000000000000000000000\n    /* \"#utility.yul\":4733:4734   */\n  0x00\n    /* \"#utility.yul\":4726:4814   */\n  mstore\n    /* \"#utility.yul\":4833:4837   */\n  0x22\n    /* \"#utility.yul\":4830:4831   */\n  0x04\n    /* \"#utility.yul\":4823:4838   */\n  mstore\n    /* \"#utility.yul\":4857:4861   */\n  0x24\n    /* \"#utility.yul\":4854:4855   */\n  0x00\n    /* \"#utility.yul\":4847:4862   */\n  revert\n    /* \"#utility.yul\":4874:5054   */\ntag_70:\n    /* \"#utility.yul\":4922:4999   */\n  0x4e487b7100000000000000000000000000000000000000000000000000000000\n    /* \"#utility.yul\":4919:4920   */\n  0x00\n    /* \"#utility.yul\":4912:5000   */\n  mstore\n    /* \"#utility.yul\":5019:5023   */\n  0x41\n    /* \"#utility.yul\":5016:5017   */\n  0x04\n    /* \"#utility.yul\":5009:5024   */\n  mstore\n    /* \"#utility.yul\":5043:5047   */\n  0x24\n    /* \"#utility.yul\":5040:5041   */\n  0x00\n    /* \"#utility.yul\":5033:5048   */\n  revert\n    /* \"#utility.yul\":5060:5182   */\ntag_46:\n    /* \"#utility.yul\":5133:5157   */\n  tag_98\n    /* \"#utility.yul\":5151:5156   */\n  dup2\n    /* \"#utility.yul\":5133:5157   */\n  tag_78\n  jump\t// in\ntag_98:\n    /* \"#utility.yul\":5126:5131   */\n  dup2\n    /* \"#utility.yul\":5123:5158   */\n  eq\n    /* \"#utility.yul\":5113:5115   */\n  tag_99\n  jumpi\n    /* \"#utility.yul\":5172:5173   */\n  0x00\n    /* \"#utility.yul\":5169:5170   */\n  dup1\n    /* \"#utility.yul\":5162:5174   */\n  revert\n    /* \"#utility.yul\":5113:5115   */\ntag_99:\n    /* \"#utility.yul\":5103:5182   */\n  pop\n  jump\t// out\n    /* \"contracts/Lottery.sol\":946:3779  contract Random {\r... */\ntag_10:\n  dataSize(sub_0)\n  dup1\n  dataOffset(sub_0)\n  0x00\n  codecopy\n  0x00\n  return\nstop\n\nsub_0: assembly {\n        /* \"contracts/Lottery.sol\":946:3779  contract Random {\r... */\n      mstore(0x40, 0x80)\n      jumpi(tag_1, lt(calldatasize, 0x04))\n      shr(0xe0, calldataload(0x00))\n      dup1\n      0x79ed40bc\n      gt\n      tag_12\n      jumpi\n      dup1\n      0x79ed40bc\n      eq\n      tag_7\n      jumpi\n      dup1\n      0x8da5cb5b\n      eq\n      tag_8\n      jumpi\n      dup1\n      0x9f8743f7\n      eq\n      tag_9\n      jumpi\n      dup1\n      0xa86d2e19\n      eq\n      tag_10\n      jumpi\n      dup1\n      0xcf66b989\n      eq\n      tag_11\n      jumpi\n      jump(tag_2)\n    tag_12:\n      dup1\n      0x0df516d8\n      eq\n      tag_3\n      jumpi\n      dup1\n      0x146ca531\n      eq\n      tag_4\n      jumpi\n      dup1\n      0x4d9b3d5d\n      eq\n      tag_5\n      jumpi\n      dup1\n      0x5ef5cc89\n      eq\n      tag_6\n      jumpi\n      jump(tag_2)\n    tag_1:\n      jumpi(tag_2, calldatasize)\n        /* \"contracts/Lottery.sol\":2125:2131  10**16 */\n      0x2386f26fc10000\n        /* \"contracts/Lottery.sol\":2112:2121  msg.value */\n      callvalue\n        /* \"contracts/Lottery.sol\":2112:2131  msg.value == 10**16 */\n      eq\n        /* \"contracts/Lottery.sol\":2104:2153  require(msg.value == 10**16, \"Must be 0.01Ether\") */\n      tag_15\n      jumpi\n      mload(0x40)\n      0x08c379a000000000000000000000000000000000000000000000000000000000\n      dup2\n      mstore\n      0x04\n      add\n      tag_16\n      swap1\n      tag_17\n      jump\t// in\n    tag_16:\n      mload(0x40)\n      dup1\n      swap2\n      sub\n      swap1\n      revert\n    tag_15:\n        /* \"contracts/Lottery.sol\":2210:2215  false */\n      0x00\n        /* \"contracts/Lottery.sol\":2172:2215  paidAddressList[round][msg.sender] == false */\n      iszero\n      iszero\n        /* \"contracts/Lottery.sol\":2172:2187  paidAddressList */\n      0x06\n        /* \"contracts/Lottery.sol\":2172:2194  paidAddressList[round] */\n      0x00\n        /* \"contracts/Lottery.sol\":2188:2193  round */\n      sload(0x04)\n        /* \"contracts/Lottery.sol\":2172:2194  paidAddressList[round] */\n      dup2\n      mstore\n      0x20\n      add\n      swap1\n      dup2\n      mstore\n      0x20\n      add\n      0x00\n      keccak256\n        /* \"contracts/Lottery.sol\":2172:2206  paidAddressList[round][msg.sender] */\n      0x00\n        /* \"contracts/Lottery.sol\":2195:2205  msg.sender */\n      caller\n        /* \"contracts/Lottery.sol\":2172:2206  paidAddressList[round][msg.sender] */\n      0xffffffffffffffffffffffffffffffffffffffff\n      and\n      0xffffffffffffffffffffffffffffffffffffffff\n      and\n      dup2\n      mstore\n      0x20\n      add\n      swap1\n      dup2\n      mstore\n      0x20\n      add\n      0x00\n      keccak256\n      0x00\n      swap1\n      sload\n      swap1\n      0x0100\n      exp\n      swap1\n      div\n      0xff\n      and\n        /* \"contracts/Lottery.sol\":2172:2215  paidAddressList[round][msg.sender] == false */\n      iszero\n      iszero\n      eq\n        /* \"contracts/Lottery.sol\":2164:2242  require(paidAddressList[round][msg.sender] == false, \"must be the first time\") */\n      tag_18\n      jumpi\n      mload(0x40)\n      0x08c379a000000000000000000000000000000000000000000000000000000000\n      dup2\n      mstore\n      0x04\n      add\n      tag_19\n      swap1\n      tag_20\n      jump\t// in\n    tag_19:\n      mload(0x40)\n      dup1\n      swap2\n      sub\n      swap1\n      revert\n    tag_18:\n        /* \"contracts/Lottery.sol\":2290:2294  true */\n      0x01\n        /* \"contracts/Lottery.sol\":2253:2268  paidAddressList */\n      0x06\n        /* \"contracts/Lottery.sol\":2253:2275  paidAddressList[round] */\n      0x00\n        /* \"contracts/Lottery.sol\":2269:2274  round */\n      sload(0x04)\n        /* \"contracts/Lottery.sol\":2253:2275  paidAddressList[round] */\n      dup2\n      mstore\n      0x20\n      add\n      swap1\n      dup2\n      mstore\n      0x20\n      add\n      0x00\n      keccak256\n        /* \"contracts/Lottery.sol\":2253:2287  paidAddressList[round][msg.sender] */\n      0x00\n        /* \"contracts/Lottery.sol\":2276:2286  msg.sender */\n      caller\n        /* \"contracts/Lottery.sol\":2253:2287  paidAddressList[round][msg.sender] */\n      0xffffffffffffffffffffffffffffffffffffffff\n      and\n      0xffffffffffffffffffffffffffffffffffffffff\n      and\n      dup2\n      mstore\n      0x20\n      add\n      swap1\n      dup2\n      mstore\n      0x20\n      add\n      0x00\n      keccak256\n      0x00\n        /* \"contracts/Lottery.sol\":2253:2294  paidAddressList[round][msg.sender] = true */\n      0x0100\n      exp\n      dup2\n      sload\n      dup2\n      0xff\n      mul\n      not\n      and\n      swap1\n      dup4\n      iszero\n      iszero\n      mul\n      or\n      swap1\n      sstore\n      pop\n        /* \"contracts/Lottery.sol\":2305:2315  playNumber */\n      0x05\n      0x00\n        /* \"contracts/Lottery.sol\":2305:2317  playNumber++ */\n      dup2\n      sload\n      dup1\n      swap3\n      swap2\n      swap1\n      tag_21\n      swap1\n      tag_22\n      jump\t// in\n    tag_21:\n      swap2\n      swap1\n      pop\n      sstore\n      pop\n        /* \"contracts/Lottery.sol\":2347:2359  winnerNumber */\n      sload(0x01)\n        /* \"contracts/Lottery.sol\":2333:2343  playNumber */\n      sload(0x05)\n        /* \"contracts/Lottery.sol\":2333:2359  playNumber == winnerNumber */\n      eq\n        /* \"contracts/Lottery.sol\":2330:2709  if(playNumber == winnerNumber) {\r... */\n      iszero\n      tag_23\n      jumpi\n        /* \"contracts/Lottery.sol\":2377:2389  bool success */\n      0x00\n        /* \"contracts/Lottery.sol\":2393:2403  msg.sender */\n      caller\n        /* \"contracts/Lottery.sol\":2393:2408  msg.sender.call */\n      0xffffffffffffffffffffffffffffffffffffffff\n      and\n        /* \"contracts/Lottery.sol\":2416:2437  address(this).balance */\n      selfbalance\n        /* \"contracts/Lottery.sol\":2393:2442  msg.sender.call{value: address(this).balance}(\"\") */\n      mload(0x40)\n      tag_24\n      swap1\n      tag_25\n      jump\t// in\n    tag_24:\n      0x00\n      mload(0x40)\n      dup1\n      dup4\n      sub\n      dup2\n      dup6\n      dup8\n      gas\n      call\n      swap3\n      pop\n      pop\n      pop\n      returndatasize\n      dup1\n      0x00\n      dup2\n      eq\n      tag_28\n      jumpi\n      mload(0x40)\n      swap2\n      pop\n      and(add(returndatasize, 0x3f), not(0x1f))\n      dup3\n      add\n      0x40\n      mstore\n      returndatasize\n      dup3\n      mstore\n      returndatasize\n      0x00\n      0x20\n      dup5\n      add\n      returndatacopy\n      jump(tag_27)\n    tag_28:\n      0x60\n      swap2\n      pop\n    tag_27:\n      pop\n        /* \"contracts/Lottery.sol\":2376:2442  (bool success,) =msg.sender.call{value: address(this).balance}(\"\") */\n      pop\n      swap1\n      pop\n        /* \"contracts/Lottery.sol\":2465:2472  success */\n      dup1\n        /* \"contracts/Lottery.sol\":2457:2483  require(success, \"Failed\") */\n      tag_29\n      jumpi\n      mload(0x40)\n      0x08c379a000000000000000000000000000000000000000000000000000000000\n      dup2\n      mstore\n      0x04\n      add\n      tag_30\n      swap1\n      tag_31\n      jump\t// in\n    tag_30:\n      mload(0x40)\n      dup1\n      swap2\n      sub\n      swap1\n      revert\n    tag_29:\n        /* \"contracts/Lottery.sol\":2511:2512  0 */\n      0x00\n        /* \"contracts/Lottery.sol\":2498:2508  playNumber */\n      0x05\n        /* \"contracts/Lottery.sol\":2498:2512  playNumber = 0 */\n      dup2\n      swap1\n      sstore\n      pop\n        /* \"contracts/Lottery.sol\":2529:2534  round */\n      0x04\n      0x00\n        /* \"contracts/Lottery.sol\":2527:2534  ++round */\n      dup2\n      sload\n      tag_32\n      swap1\n      tag_22\n      jump\t// in\n    tag_32:\n      swap2\n      swap1\n      pop\n      dup2\n      swap1\n      sstore\n      pop\n        /* \"contracts/Lottery.sol\":2566:2580  randomNumber() */\n      tag_33\n        /* \"contracts/Lottery.sol\":2566:2578  randomNumber */\n      tag_34\n        /* \"contracts/Lottery.sol\":2566:2580  randomNumber() */\n      jump\t// in\n    tag_33:\n        /* \"contracts/Lottery.sol\":2551:2563  winnerNumber */\n      0x01\n        /* \"contracts/Lottery.sol\":2551:2580  winnerNumber = randomNumber() */\n      dup2\n      swap1\n      sstore\n      pop\n        /* \"contracts/Lottery.sol\":2614:2624  msg.sender */\n      caller\n        /* \"contracts/Lottery.sol\":2600:2625  WinnerAddress(msg.sender) */\n      0xffffffffffffffffffffffffffffffffffffffff\n      and\n      0xd7b5435fa0dd93954c7955210a67950d9385f8cd60631432712709e265ec99ca\n      mload(0x40)\n      mload(0x40)\n      dup1\n      swap2\n      sub\n      swap1\n      log2\n        /* \"contracts/Lottery.sol\":2330:2709  if(playNumber == winnerNumber) {\r... */\n      pop\n      jump(tag_35)\n    tag_23:\n        /* \"contracts/Lottery.sol\":2675:2685  msg.sender */\n      caller\n        /* \"contracts/Lottery.sol\":2663:2697  PaidAddress(msg.sender, msg.value) */\n      0xffffffffffffffffffffffffffffffffffffffff\n      and\n      0x20384c35af44ae3e0536c765e1cee107339d7ca70b092472c816a3a62e4ba659\n        /* \"contracts/Lottery.sol\":2687:2696  msg.value */\n      callvalue\n        /* \"contracts/Lottery.sol\":2663:2697  PaidAddress(msg.sender, msg.value) */\n      mload(0x40)\n      tag_36\n      swap2\n      swap1\n      tag_37\n      jump\t// in\n    tag_36:\n      mload(0x40)\n      dup1\n      swap2\n      sub\n      swap1\n      log2\n        /* \"contracts/Lottery.sol\":2330:2709  if(playNumber == winnerNumber) {\r... */\n    tag_35:\n        /* \"contracts/Lottery.sol\":946:3779  contract Random {\r... */\n      stop\n    tag_2:\n      0x00\n      dup1\n      revert\n        /* \"contracts/Lottery.sol\":1378:1404  uint public playNumber = 0 */\n    tag_3:\n      callvalue\n      dup1\n      iszero\n      tag_38\n      jumpi\n      0x00\n      dup1\n      revert\n    tag_38:\n      pop\n      tag_39\n      tag_40\n      jump\t// in\n    tag_39:\n      mload(0x40)\n      tag_41\n      swap2\n      swap1\n      tag_37\n      jump\t// in\n    tag_41:\n      mload(0x40)\n      dup1\n      swap2\n      sub\n      swap1\n      return\n        /* \"contracts/Lottery.sol\":1350:1371  uint public round = 1 */\n    tag_4:\n      callvalue\n      dup1\n      iszero\n      tag_42\n      jumpi\n      0x00\n      dup1\n      revert\n    tag_42:\n      pop\n      tag_43\n      tag_44\n      jump\t// in\n    tag_43:\n      mload(0x40)\n      tag_45\n      swap2\n      swap1\n      tag_37\n      jump\t// in\n    tag_45:\n      mload(0x40)\n      dup1\n      swap2\n      sub\n      swap1\n      return\n        /* \"contracts/Lottery.sol\":3678:3775  function getbalance() public view returns(uint256){\r... */\n    tag_5:\n      callvalue\n      dup1\n      iszero\n      tag_46\n      jumpi\n      0x00\n      dup1\n      revert\n    tag_46:\n      pop\n      tag_47\n      tag_48\n      jump\t// in\n    tag_47:\n      mload(0x40)\n      tag_49\n      swap2\n      swap1\n      tag_37\n      jump\t// in\n    tag_49:\n      mload(0x40)\n      dup1\n      swap2\n      sub\n      swap1\n      return\n        /* \"contracts/Lottery.sol\":3043:3171  function setSecretKey(string memory _key1, uint _key2) public onlyOwner() {\r... */\n    tag_6:\n      callvalue\n      dup1\n      iszero\n      tag_50\n      jumpi\n      0x00\n      dup1\n      revert\n    tag_50:\n      pop\n      tag_51\n      0x04\n      dup1\n      calldatasize\n      sub\n      dup2\n      add\n      swap1\n      tag_52\n      swap2\n      swap1\n      tag_53\n      jump\t// in\n    tag_52:\n      tag_54\n      jump\t// in\n    tag_51:\n      stop\n        /* \"contracts/Lottery.sol\":3229:3341  function getSecretKey() public view onlyOwner() returns(string memory, uint){\r... */\n    tag_7:\n      callvalue\n      dup1\n      iszero\n      tag_55\n      jumpi\n      0x00\n      dup1\n      revert\n    tag_55:\n      pop\n      tag_56\n      tag_57\n      jump\t// in\n    tag_56:\n      mload(0x40)\n      tag_58\n      swap3\n      swap2\n      swap1\n      tag_59\n      jump\t// in\n    tag_58:\n      mload(0x40)\n      dup1\n      swap2\n      sub\n      swap1\n      return\n        /* \"contracts/Lottery.sol\":1237:1257  address public owner */\n    tag_8:\n      callvalue\n      dup1\n      iszero\n      tag_60\n      jumpi\n      0x00\n      dup1\n      revert\n    tag_60:\n      pop\n      tag_61\n      tag_62\n      jump\t// in\n    tag_61:\n      mload(0x40)\n      tag_63\n      swap2\n      swap1\n      tag_64\n      jump\t// in\n    tag_63:\n      mload(0x40)\n      dup1\n      swap2\n      sub\n      swap1\n      return\n        /* \"contracts/Lottery.sol\":3550:3629  function getRound() public view returns(uint256){\r... */\n    tag_9:\n      callvalue\n      dup1\n      iszero\n      tag_65\n      jumpi\n      0x00\n      dup1\n      revert\n    tag_65:\n      pop\n      tag_66\n      tag_67\n      jump\t// in\n    tag_66:\n      mload(0x40)\n      tag_68\n      swap2\n      swap1\n      tag_37\n      jump\t// in\n    tag_68:\n      mload(0x40)\n      dup1\n      swap2\n      sub\n      swap1\n      return\n        /* \"contracts/Lottery.sol\":3402:3507  function getWinnerNumber() public view onlyOwner() returns(uint256){\r... */\n    tag_10:\n      callvalue\n      dup1\n      iszero\n      tag_69\n      jumpi\n      0x00\n      dup1\n      revert\n    tag_69:\n      pop\n      tag_70\n      tag_71\n      jump\t// in\n    tag_70:\n      mload(0x40)\n      tag_72\n      swap2\n      swap1\n      tag_37\n      jump\t// in\n    tag_72:\n      mload(0x40)\n      dup1\n      swap2\n      sub\n      swap1\n      return\n        /* \"contracts/Lottery.sol\":1413:1477  mapping(uint => mapping(address => bool)) public paidAddressList */\n    tag_11:\n      callvalue\n      dup1\n      iszero\n      tag_73\n      jumpi\n      0x00\n      dup1\n      revert\n    tag_73:\n      pop\n      tag_74\n      0x04\n      dup1\n      calldatasize\n      sub\n      dup2\n      add\n      swap1\n      tag_75\n      swap2\n      swap1\n      tag_76\n      jump\t// in\n    tag_75:\n      tag_77\n      jump\t// in\n    tag_74:\n      mload(0x40)\n      tag_78\n      swap2\n      swap1\n      tag_79\n      jump\t// in\n    tag_78:\n      mload(0x40)\n      dup1\n      swap2\n      sub\n      swap1\n      return\n        /* \"contracts/Lottery.sol\":2774:2951  function randomNumber() private view returns(uint) {\r... */\n    tag_34:\n        /* \"contracts/Lottery.sol\":2819:2823  uint */\n      0x00\n        /* \"contracts/Lottery.sol\":2836:2844  uint num */\n      dup1\n        /* \"contracts/Lottery.sol\":2911:2923  block.number */\n      number\n        /* \"contracts/Lottery.sol\":2891:2906  block.timestamp */\n      timestamp\n        /* \"contracts/Lottery.sol\":2883:2887  key2 */\n      sload(0x03)\n        /* \"contracts/Lottery.sol\":2873:2877  key1 */\n      0x02\n        /* \"contracts/Lottery.sol\":2862:2878  abi.encode(key1) */\n      add(0x20, mload(0x40))\n      tag_81\n      swap2\n      swap1\n      tag_82\n      jump\t// in\n    tag_81:\n      mload(0x40)\n      0x20\n      dup2\n      dup4\n      sub\n      sub\n      dup2\n      mstore\n      swap1\n      0x40\n      mstore\n        /* \"contracts/Lottery.sol\":2852:2879  keccak256(abi.encode(key1)) */\n      dup1\n      mload\n      swap1\n      0x20\n      add\n      keccak256\n        /* \"contracts/Lottery.sol\":2847:2880  uint(keccak256(abi.encode(key1))) */\n      0x00\n      shr\n        /* \"contracts/Lottery.sol\":2847:2887  uint(keccak256(abi.encode(key1))) + key2 */\n      tag_83\n      swap2\n      swap1\n      tag_84\n      jump\t// in\n    tag_83:\n        /* \"contracts/Lottery.sol\":2847:2907  uint(keccak256(abi.encode(key1))) + key2 + (block.timestamp) */\n      tag_85\n      swap2\n      swap1\n      tag_84\n      jump\t// in\n    tag_85:\n        /* \"contracts/Lottery.sol\":2847:2924  uint(keccak256(abi.encode(key1))) + key2 + (block.timestamp) + (block.number) */\n      tag_86\n      swap2\n      swap1\n      tag_84\n      jump\t// in\n    tag_86:\n        /* \"contracts/Lottery.sol\":2836:2924  uint num = uint(keccak256(abi.encode(key1))) + key2 + (block.timestamp) + (block.number) */\n      swap1\n      pop\n        /* \"contracts/Lottery.sol\":2942:2943  2 */\n      0x02\n        /* \"contracts/Lottery.sol\":2935:2943  return 2 */\n      swap2\n      pop\n      pop\n        /* \"contracts/Lottery.sol\":2774:2951  function randomNumber() private view returns(uint) {\r... */\n      swap1\n      jump\t// out\n        /* \"contracts/Lottery.sol\":1378:1404  uint public playNumber = 0 */\n    tag_40:\n      sload(0x05)\n      dup2\n      jump\t// out\n        /* \"contracts/Lottery.sol\":1350:1371  uint public round = 1 */\n    tag_44:\n      sload(0x04)\n      dup2\n      jump\t// out\n        /* \"contracts/Lottery.sol\":3678:3775  function getbalance() public view returns(uint256){\r... */\n    tag_48:\n        /* \"contracts/Lottery.sol\":3720:3727  uint256 */\n      0x00\n        /* \"contracts/Lottery.sol\":3746:3767  address(this).balance */\n      selfbalance\n        /* \"contracts/Lottery.sol\":3739:3767  return address(this).balance */\n      swap1\n      pop\n        /* \"contracts/Lottery.sol\":3678:3775  function getbalance() public view returns(uint256){\r... */\n      swap1\n      jump\t// out\n        /* \"contracts/Lottery.sol\":3043:3171  function setSecretKey(string memory _key1, uint _key2) public onlyOwner() {\r... */\n    tag_54:\n        /* \"contracts/Lottery.sol\":1540:1545  owner */\n      0x00\n      dup1\n      sload\n      swap1\n      0x0100\n      exp\n      swap1\n      div\n      0xffffffffffffffffffffffffffffffffffffffff\n      and\n        /* \"contracts/Lottery.sol\":1526:1545  msg.sender == owner */\n      0xffffffffffffffffffffffffffffffffffffffff\n      and\n        /* \"contracts/Lottery.sol\":1526:1536  msg.sender */\n      caller\n        /* \"contracts/Lottery.sol\":1526:1545  msg.sender == owner */\n      0xffffffffffffffffffffffffffffffffffffffff\n      and\n      eq\n        /* \"contracts/Lottery.sol\":1518:1567  require(msg.sender == owner, \"You are not Owner\") */\n      tag_89\n      jumpi\n      mload(0x40)\n      0x08c379a000000000000000000000000000000000000000000000000000000000\n      dup2\n      mstore\n      0x04\n      add\n      tag_90\n      swap1\n      tag_91\n      jump\t// in\n    tag_90:\n      mload(0x40)\n      dup1\n      swap2\n      sub\n      swap1\n      revert\n    tag_89:\n        /* \"contracts/Lottery.sol\":3135:3140  _key1 */\n      dup2\n        /* \"contracts/Lottery.sol\":3128:3132  key1 */\n      0x02\n        /* \"contracts/Lottery.sol\":3128:3140  key1 = _key1 */\n      swap1\n      dup1\n      mload\n      swap1\n      0x20\n      add\n      swap1\n      tag_93\n      swap3\n      swap2\n      swap1\n      tag_94\n      jump\t// in\n    tag_93:\n      pop\n        /* \"contracts/Lottery.sol\":3158:3163  _key2 */\n      dup1\n        /* \"contracts/Lottery.sol\":3151:3155  key2 */\n      0x03\n        /* \"contracts/Lottery.sol\":3151:3163  key2 = _key2 */\n      dup2\n      swap1\n      sstore\n      pop\n        /* \"contracts/Lottery.sol\":3043:3171  function setSecretKey(string memory _key1, uint _key2) public onlyOwner() {\r... */\n      pop\n      pop\n      jump\t// out\n        /* \"contracts/Lottery.sol\":3229:3341  function getSecretKey() public view onlyOwner() returns(string memory, uint){\r... */\n    tag_57:\n        /* \"contracts/Lottery.sol\":3285:3298  string memory */\n      0x60\n        /* \"contracts/Lottery.sol\":3300:3304  uint */\n      0x00\n        /* \"contracts/Lottery.sol\":1540:1545  owner */\n      dup1\n      0x00\n      swap1\n      sload\n      swap1\n      0x0100\n      exp\n      swap1\n      div\n      0xffffffffffffffffffffffffffffffffffffffff\n      and\n        /* \"contracts/Lottery.sol\":1526:1545  msg.sender == owner */\n      0xffffffffffffffffffffffffffffffffffffffff\n      and\n        /* \"contracts/Lottery.sol\":1526:1536  msg.sender */\n      caller\n        /* \"contracts/Lottery.sol\":1526:1545  msg.sender == owner */\n      0xffffffffffffffffffffffffffffffffffffffff\n      and\n      eq\n        /* \"contracts/Lottery.sol\":1518:1567  require(msg.sender == owner, \"You are not Owner\") */\n      tag_96\n      jumpi\n      mload(0x40)\n      0x08c379a000000000000000000000000000000000000000000000000000000000\n      dup2\n      mstore\n      0x04\n      add\n      tag_97\n      swap1\n      tag_91\n      jump\t// in\n    tag_97:\n      mload(0x40)\n      dup1\n      swap2\n      sub\n      swap1\n      revert\n    tag_96:\n        /* \"contracts/Lottery.sol\":3323:3327  key1 */\n      0x02\n        /* \"contracts/Lottery.sol\":3328:3332  key2 */\n      sload(0x03)\n        /* \"contracts/Lottery.sol\":3316:3333  return(key1,key2) */\n      dup2\n      dup1\n      sload\n      tag_99\n      swap1\n      tag_100\n      jump\t// in\n    tag_99:\n      dup1\n      0x1f\n      add\n      0x20\n      dup1\n      swap2\n      div\n      mul\n      0x20\n      add\n      mload(0x40)\n      swap1\n      dup2\n      add\n      0x40\n      mstore\n      dup1\n      swap3\n      swap2\n      swap1\n      dup2\n      dup2\n      mstore\n      0x20\n      add\n      dup3\n      dup1\n      sload\n      tag_101\n      swap1\n      tag_100\n      jump\t// in\n    tag_101:\n      dup1\n      iszero\n      tag_102\n      jumpi\n      dup1\n      0x1f\n      lt\n      tag_103\n      jumpi\n      0x0100\n      dup1\n      dup4\n      sload\n      div\n      mul\n      dup4\n      mstore\n      swap2\n      0x20\n      add\n      swap2\n      jump(tag_102)\n    tag_103:\n      dup3\n      add\n      swap2\n      swap1\n      0x00\n      mstore\n      keccak256(0x00, 0x20)\n      swap1\n    tag_104:\n      dup2\n      sload\n      dup2\n      mstore\n      swap1\n      0x01\n      add\n      swap1\n      0x20\n      add\n      dup1\n      dup4\n      gt\n      tag_104\n      jumpi\n      dup3\n      swap1\n      sub\n      0x1f\n      and\n      dup3\n      add\n      swap2\n    tag_102:\n      pop\n      pop\n      pop\n      pop\n      pop\n      swap2\n      pop\n      swap2\n      pop\n      swap2\n      pop\n        /* \"contracts/Lottery.sol\":3229:3341  function getSecretKey() public view onlyOwner() returns(string memory, uint){\r... */\n      swap1\n      swap2\n      jump\t// out\n        /* \"contracts/Lottery.sol\":1237:1257  address public owner */\n    tag_62:\n      0x00\n      dup1\n      sload\n      swap1\n      0x0100\n      exp\n      swap1\n      div\n      0xffffffffffffffffffffffffffffffffffffffff\n      and\n      dup2\n      jump\t// out\n        /* \"contracts/Lottery.sol\":3550:3629  function getRound() public view returns(uint256){\r... */\n    tag_67:\n        /* \"contracts/Lottery.sol\":3590:3597  uint256 */\n      0x00\n        /* \"contracts/Lottery.sol\":3616:3621  round */\n      sload(0x04)\n        /* \"contracts/Lottery.sol\":3609:3621  return round */\n      swap1\n      pop\n        /* \"contracts/Lottery.sol\":3550:3629  function getRound() public view returns(uint256){\r... */\n      swap1\n      jump\t// out\n        /* \"contracts/Lottery.sol\":3402:3507  function getWinnerNumber() public view onlyOwner() returns(uint256){\r... */\n    tag_71:\n        /* \"contracts/Lottery.sol\":3461:3468  uint256 */\n      0x00\n        /* \"contracts/Lottery.sol\":1540:1545  owner */\n      dup1\n      0x00\n      swap1\n      sload\n      swap1\n      0x0100\n      exp\n      swap1\n      div\n      0xffffffffffffffffffffffffffffffffffffffff\n      and\n        /* \"contracts/Lottery.sol\":1526:1545  msg.sender == owner */\n      0xffffffffffffffffffffffffffffffffffffffff\n      and\n        /* \"contracts/Lottery.sol\":1526:1536  msg.sender */\n      caller\n        /* \"contracts/Lottery.sol\":1526:1545  msg.sender == owner */\n      0xffffffffffffffffffffffffffffffffffffffff\n      and\n      eq\n        /* \"contracts/Lottery.sol\":1518:1567  require(msg.sender == owner, \"You are not Owner\") */\n      tag_107\n      jumpi\n      mload(0x40)\n      0x08c379a000000000000000000000000000000000000000000000000000000000\n      dup2\n      mstore\n      0x04\n      add\n      tag_108\n      swap1\n      tag_91\n      jump\t// in\n    tag_108:\n      mload(0x40)\n      dup1\n      swap2\n      sub\n      swap1\n      revert\n    tag_107:\n        /* \"contracts/Lottery.sol\":3487:3499  winnerNumber */\n      sload(0x01)\n        /* \"contracts/Lottery.sol\":3480:3499  return winnerNumber */\n      swap1\n      pop\n        /* \"contracts/Lottery.sol\":3402:3507  function getWinnerNumber() public view onlyOwner() returns(uint256){\r... */\n      swap1\n      jump\t// out\n        /* \"contracts/Lottery.sol\":1413:1477  mapping(uint => mapping(address => bool)) public paidAddressList */\n    tag_77:\n      mstore(0x20, 0x06)\n      dup2\n      0x00\n      mstore\n      mstore(0x20, keccak256(0x00, 0x40))\n      dup1\n      0x00\n      mstore\n      keccak256(0x00, 0x40)\n      0x00\n      swap2\n      pop\n      swap2\n      pop\n      swap1\n      sload\n      swap1\n      0x0100\n      exp\n      swap1\n      div\n      0xff\n      and\n      dup2\n      jump\t// out\n    tag_94:\n      dup3\n      dup1\n      sload\n      tag_110\n      swap1\n      tag_100\n      jump\t// in\n    tag_110:\n      swap1\n      0x00\n      mstore\n      keccak256(0x00, 0x20)\n      swap1\n      0x1f\n      add\n      0x20\n      swap1\n      div\n      dup2\n      add\n      swap3\n      dup3\n      tag_112\n      jumpi\n      0x00\n      dup6\n      sstore\n      jump(tag_111)\n    tag_112:\n      dup3\n      0x1f\n      lt\n      tag_113\n      jumpi\n      dup1\n      mload\n      not(0xff)\n      and\n      dup4\n      dup1\n      add\n      or\n      dup6\n      sstore\n      jump(tag_111)\n    tag_113:\n      dup3\n      dup1\n      add\n      0x01\n      add\n      dup6\n      sstore\n      dup3\n      iszero\n      tag_111\n      jumpi\n      swap2\n      dup3\n      add\n    tag_114:\n      dup3\n      dup2\n      gt\n      iszero\n      tag_115\n      jumpi\n      dup3\n      mload\n      dup3\n      sstore\n      swap2\n      0x20\n      add\n      swap2\n      swap1\n      0x01\n      add\n      swap1\n      jump(tag_114)\n    tag_115:\n    tag_111:\n      pop\n      swap1\n      pop\n      tag_116\n      swap2\n      swap1\n      tag_117\n      jump\t// in\n    tag_116:\n      pop\n      swap1\n      jump\t// out\n    tag_117:\n    tag_118:\n      dup1\n      dup3\n      gt\n      iszero\n      tag_119\n      jumpi\n      0x00\n      dup2\n      0x00\n      swap1\n      sstore\n      pop\n      0x01\n      add\n      jump(tag_118)\n    tag_119:\n      pop\n      swap1\n      jump\t// out\n        /* \"#utility.yul\":7:351   */\n    tag_121:\n      0x00\n        /* \"#utility.yul\":110:175   */\n      tag_123\n        /* \"#utility.yul\":125:174   */\n      tag_124\n        /* \"#utility.yul\":167:173   */\n      dup5\n        /* \"#utility.yul\":125:174   */\n      tag_125\n      jump\t// in\n    tag_124:\n        /* \"#utility.yul\":110:175   */\n      tag_126\n      jump\t// in\n    tag_123:\n        /* \"#utility.yul\":101:175   */\n      swap1\n      pop\n        /* \"#utility.yul\":198:204   */\n      dup3\n        /* \"#utility.yul\":191:196   */\n      dup2\n        /* \"#utility.yul\":184:205   */\n      mstore\n        /* \"#utility.yul\":236:240   */\n      0x20\n        /* \"#utility.yul\":229:234   */\n      dup2\n        /* \"#utility.yul\":225:241   */\n      add\n        /* \"#utility.yul\":274:277   */\n      dup5\n        /* \"#utility.yul\":265:271   */\n      dup5\n        /* \"#utility.yul\":260:263   */\n      dup5\n        /* \"#utility.yul\":256:272   */\n      add\n        /* \"#utility.yul\":253:278   */\n      gt\n        /* \"#utility.yul\":250:252   */\n      iszero\n      tag_127\n      jumpi\n        /* \"#utility.yul\":291:292   */\n      0x00\n        /* \"#utility.yul\":288:289   */\n      dup1\n        /* \"#utility.yul\":281:293   */\n      revert\n        /* \"#utility.yul\":250:252   */\n    tag_127:\n        /* \"#utility.yul\":304:345   */\n      tag_128\n        /* \"#utility.yul\":338:344   */\n      dup5\n        /* \"#utility.yul\":333:336   */\n      dup3\n        /* \"#utility.yul\":328:331   */\n      dup6\n        /* \"#utility.yul\":304:345   */\n      tag_129\n      jump\t// in\n    tag_128:\n        /* \"#utility.yul\":91:351   */\n      pop\n      swap4\n      swap3\n      pop\n      pop\n      pop\n      jump\t// out\n        /* \"#utility.yul\":357:496   */\n    tag_130:\n      0x00\n        /* \"#utility.yul\":441:447   */\n      dup2\n        /* \"#utility.yul\":428:448   */\n      calldataload\n        /* \"#utility.yul\":419:448   */\n      swap1\n      pop\n        /* \"#utility.yul\":457:490   */\n      tag_132\n        /* \"#utility.yul\":484:489   */\n      dup2\n        /* \"#utility.yul\":457:490   */\n      tag_133\n      jump\t// in\n    tag_132:\n        /* \"#utility.yul\":409:496   */\n      swap3\n      swap2\n      pop\n      pop\n      jump\t// out\n        /* \"#utility.yul\":516:789   */\n    tag_134:\n      0x00\n        /* \"#utility.yul\":621:624   */\n      dup3\n        /* \"#utility.yul\":614:618   */\n      0x1f\n        /* \"#utility.yul\":606:612   */\n      dup4\n        /* \"#utility.yul\":602:619   */\n      add\n        /* \"#utility.yul\":598:625   */\n      slt\n        /* \"#utility.yul\":588:590   */\n      tag_136\n      jumpi\n        /* \"#utility.yul\":639:640   */\n      0x00\n        /* \"#utility.yul\":636:637   */\n      dup1\n        /* \"#utility.yul\":629:641   */\n      revert\n        /* \"#utility.yul\":588:590   */\n    tag_136:\n        /* \"#utility.yul\":679:685   */\n      dup2\n        /* \"#utility.yul\":666:686   */\n      calldataload\n        /* \"#utility.yul\":704:783   */\n      tag_137\n        /* \"#utility.yul\":779:782   */\n      dup5\n        /* \"#utility.yul\":771:777   */\n      dup3\n        /* \"#utility.yul\":764:768   */\n      0x20\n        /* \"#utility.yul\":756:762   */\n      dup7\n        /* \"#utility.yul\":752:769   */\n      add\n        /* \"#utility.yul\":704:783   */\n      tag_121\n      jump\t// in\n    tag_137:\n        /* \"#utility.yul\":695:783   */\n      swap2\n      pop\n        /* \"#utility.yul\":578:789   */\n      pop\n      swap3\n      swap2\n      pop\n      pop\n      jump\t// out\n        /* \"#utility.yul\":795:934   */\n    tag_138:\n      0x00\n        /* \"#utility.yul\":879:885   */\n      dup2\n        /* \"#utility.yul\":866:886   */\n      calldataload\n        /* \"#utility.yul\":857:886   */\n      swap1\n      pop\n        /* \"#utility.yul\":895:928   */\n      tag_140\n        /* \"#utility.yul\":922:927   */\n      dup2\n        /* \"#utility.yul\":895:928   */\n      tag_141\n      jump\t// in\n    tag_140:\n        /* \"#utility.yul\":847:934   */\n      swap3\n      swap2\n      pop\n      pop\n      jump\t// out\n        /* \"#utility.yul\":940:1460   */\n    tag_53:\n      0x00\n      dup1\n        /* \"#utility.yul\":1075:1077   */\n      0x40\n        /* \"#utility.yul\":1063:1072   */\n      dup4\n        /* \"#utility.yul\":1054:1061   */\n      dup6\n        /* \"#utility.yul\":1050:1073   */\n      sub\n        /* \"#utility.yul\":1046:1078   */\n      slt\n        /* \"#utility.yul\":1043:1045   */\n      iszero\n      tag_143\n      jumpi\n        /* \"#utility.yul\":1091:1092   */\n      0x00\n        /* \"#utility.yul\":1088:1089   */\n      dup1\n        /* \"#utility.yul\":1081:1093   */\n      revert\n        /* \"#utility.yul\":1043:1045   */\n    tag_143:\n        /* \"#utility.yul\":1162:1163   */\n      0x00\n        /* \"#utility.yul\":1151:1160   */\n      dup4\n        /* \"#utility.yul\":1147:1164   */\n      add\n        /* \"#utility.yul\":1134:1165   */\n      calldataload\n        /* \"#utility.yul\":1192:1210   */\n      0xffffffffffffffff\n        /* \"#utility.yul\":1184:1190   */\n      dup2\n        /* \"#utility.yul\":1181:1211   */\n      gt\n        /* \"#utility.yul\":1178:1180   */\n      iszero\n      tag_144\n      jumpi\n        /* \"#utility.yul\":1224:1225   */\n      0x00\n        /* \"#utility.yul\":1221:1222   */\n      dup1\n        /* \"#utility.yul\":1214:1226   */\n      revert\n        /* \"#utility.yul\":1178:1180   */\n    tag_144:\n        /* \"#utility.yul\":1252:1315   */\n      tag_145\n        /* \"#utility.yul\":1307:1314   */\n      dup6\n        /* \"#utility.yul\":1298:1304   */\n      dup3\n        /* \"#utility.yul\":1287:1296   */\n      dup7\n        /* \"#utility.yul\":1283:1305   */\n      add\n        /* \"#utility.yul\":1252:1315   */\n      tag_134\n      jump\t// in\n    tag_145:\n        /* \"#utility.yul\":1242:1315   */\n      swap3\n      pop\n        /* \"#utility.yul\":1105:1325   */\n      pop\n        /* \"#utility.yul\":1364:1366   */\n      0x20\n        /* \"#utility.yul\":1390:1443   */\n      tag_146\n        /* \"#utility.yul\":1435:1442   */\n      dup6\n        /* \"#utility.yul\":1426:1432   */\n      dup3\n        /* \"#utility.yul\":1415:1424   */\n      dup7\n        /* \"#utility.yul\":1411:1433   */\n      add\n        /* \"#utility.yul\":1390:1443   */\n      tag_138\n      jump\t// in\n    tag_146:\n        /* \"#utility.yul\":1380:1443   */\n      swap2\n      pop\n        /* \"#utility.yul\":1335:1453   */\n      pop\n        /* \"#utility.yul\":1033:1460   */\n      swap3\n      pop\n      swap3\n      swap1\n      pop\n      jump\t// out\n        /* \"#utility.yul\":1466:1873   */\n    tag_76:\n      0x00\n      dup1\n        /* \"#utility.yul\":1591:1593   */\n      0x40\n        /* \"#utility.yul\":1579:1588   */\n      dup4\n        /* \"#utility.yul\":1570:1577   */\n      dup6\n        /* \"#utility.yul\":1566:1589   */\n      sub\n        /* \"#utility.yul\":1562:1594   */\n      slt\n        /* \"#utility.yul\":1559:1561   */\n      iszero\n      tag_148\n      jumpi\n        /* \"#utility.yul\":1607:1608   */\n      0x00\n        /* \"#utility.yul\":1604:1605   */\n      dup1\n        /* \"#utility.yul\":1597:1609   */\n      revert\n        /* \"#utility.yul\":1559:1561   */\n    tag_148:\n        /* \"#utility.yul\":1650:1651   */\n      0x00\n        /* \"#utility.yul\":1675:1728   */\n      tag_149\n        /* \"#utility.yul\":1720:1727   */\n      dup6\n        /* \"#utility.yul\":1711:1717   */\n      dup3\n        /* \"#utility.yul\":1700:1709   */\n      dup7\n        /* \"#utility.yul\":1696:1718   */\n      add\n        /* \"#utility.yul\":1675:1728   */\n      tag_138\n      jump\t// in\n    tag_149:\n        /* \"#utility.yul\":1665:1728   */\n      swap3\n      pop\n        /* \"#utility.yul\":1621:1738   */\n      pop\n        /* \"#utility.yul\":1777:1779   */\n      0x20\n        /* \"#utility.yul\":1803:1856   */\n      tag_150\n        /* \"#utility.yul\":1848:1855   */\n      dup6\n        /* \"#utility.yul\":1839:1845   */\n      dup3\n        /* \"#utility.yul\":1828:1837   */\n      dup7\n        /* \"#utility.yul\":1824:1846   */\n      add\n        /* \"#utility.yul\":1803:1856   */\n      tag_130\n      jump\t// in\n    tag_150:\n        /* \"#utility.yul\":1793:1856   */\n      swap2\n      pop\n        /* \"#utility.yul\":1748:1866   */\n      pop\n        /* \"#utility.yul\":1549:1873   */\n      swap3\n      pop\n      swap3\n      swap1\n      pop\n      jump\t// out\n        /* \"#utility.yul\":1879:1997   */\n    tag_151:\n        /* \"#utility.yul\":1966:1990   */\n      tag_153\n        /* \"#utility.yul\":1984:1989   */\n      dup2\n        /* \"#utility.yul\":1966:1990   */\n      tag_154\n      jump\t// in\n    tag_153:\n        /* \"#utility.yul\":1961:1964   */\n      dup3\n        /* \"#utility.yul\":1954:1991   */\n      mstore\n        /* \"#utility.yul\":1944:1997   */\n      pop\n      pop\n      jump\t// out\n        /* \"#utility.yul\":2003:2112   */\n    tag_155:\n        /* \"#utility.yul\":2084:2105   */\n      tag_157\n        /* \"#utility.yul\":2099:2104   */\n      dup2\n        /* \"#utility.yul\":2084:2105   */\n      tag_158\n      jump\t// in\n    tag_157:\n        /* \"#utility.yul\":2079:2082   */\n      dup3\n        /* \"#utility.yul\":2072:2106   */\n      mstore\n        /* \"#utility.yul\":2062:2112   */\n      pop\n      pop\n      jump\t// out\n        /* \"#utility.yul\":2118:2482   */\n    tag_159:\n      0x00\n        /* \"#utility.yul\":2234:2273   */\n      tag_161\n        /* \"#utility.yul\":2267:2272   */\n      dup3\n        /* \"#utility.yul\":2234:2273   */\n      tag_162\n      jump\t// in\n    tag_161:\n        /* \"#utility.yul\":2289:2360   */\n      tag_163\n        /* \"#utility.yul\":2353:2359   */\n      dup2\n        /* \"#utility.yul\":2348:2351   */\n      dup6\n        /* \"#utility.yul\":2289:2360   */\n      tag_164\n      jump\t// in\n    tag_163:\n        /* \"#utility.yul\":2282:2360   */\n      swap4\n      pop\n        /* \"#utility.yul\":2369:2421   */\n      tag_165\n        /* \"#utility.yul\":2414:2420   */\n      dup2\n        /* \"#utility.yul\":2409:2412   */\n      dup6\n        /* \"#utility.yul\":2402:2406   */\n      0x20\n        /* \"#utility.yul\":2395:2400   */\n      dup7\n        /* \"#utility.yul\":2391:2407   */\n      add\n        /* \"#utility.yul\":2369:2421   */\n      tag_166\n      jump\t// in\n    tag_165:\n        /* \"#utility.yul\":2446:2475   */\n      tag_167\n        /* \"#utility.yul\":2468:2474   */\n      dup2\n        /* \"#utility.yul\":2446:2475   */\n      tag_168\n      jump\t// in\n    tag_167:\n        /* \"#utility.yul\":2441:2444   */\n      dup5\n        /* \"#utility.yul\":2437:2476   */\n      add\n        /* \"#utility.yul\":2430:2476   */\n      swap2\n      pop\n        /* \"#utility.yul\":2210:2482   */\n      pop\n      swap3\n      swap2\n      pop\n      pop\n      jump\t// out\n        /* \"#utility.yul\":2512:3314   */\n    tag_169:\n      0x00\n        /* \"#utility.yul\":2634:2639   */\n      dup2\n        /* \"#utility.yul\":2628:2640   */\n      sload\n        /* \"#utility.yul\":2663:2699   */\n      tag_171\n        /* \"#utility.yul\":2689:2698   */\n      dup2\n        /* \"#utility.yul\":2663:2699   */\n      tag_100\n      jump\t// in\n    tag_171:\n        /* \"#utility.yul\":2715:2786   */\n      tag_172\n        /* \"#utility.yul\":2779:2785   */\n      dup2\n        /* \"#utility.yul\":2774:2777   */\n      dup7\n        /* \"#utility.yul\":2715:2786   */\n      tag_164\n      jump\t// in\n    tag_172:\n        /* \"#utility.yul\":2708:2786   */\n      swap5\n      pop\n        /* \"#utility.yul\":2817:2818   */\n      0x01\n        /* \"#utility.yul\":2806:2815   */\n      dup3\n        /* \"#utility.yul\":2802:2819   */\n      and\n        /* \"#utility.yul\":2833:2834   */\n      0x00\n        /* \"#utility.yul\":2828:2963   */\n      dup2\n      eq\n      tag_174\n      jumpi\n        /* \"#utility.yul\":2977:2978   */\n      0x01\n        /* \"#utility.yul\":2972:3308   */\n      dup2\n      eq\n      tag_175\n      jumpi\n        /* \"#utility.yul\":2795:3308   */\n      jump(tag_173)\n        /* \"#utility.yul\":2828:2963   */\n    tag_174:\n        /* \"#utility.yul\":2912:2916   */\n      0xff\n        /* \"#utility.yul\":2908:2917   */\n      not\n        /* \"#utility.yul\":2897:2906   */\n      dup4\n        /* \"#utility.yul\":2893:2918   */\n      and\n        /* \"#utility.yul\":2888:2891   */\n      dup7\n        /* \"#utility.yul\":2881:2919   */\n      mstore\n        /* \"#utility.yul\":2948:2952   */\n      0x20\n        /* \"#utility.yul\":2943:2946   */\n      dup7\n        /* \"#utility.yul\":2939:2953   */\n      add\n        /* \"#utility.yul\":2932:2953   */\n      swap4\n      pop\n        /* \"#utility.yul\":2828:2963   */\n      jump(tag_173)\n        /* \"#utility.yul\":2972:3308   */\n    tag_175:\n        /* \"#utility.yul\":3039:3077   */\n      tag_176\n        /* \"#utility.yul\":3071:3076   */\n      dup6\n        /* \"#utility.yul\":3039:3077   */\n      tag_177\n      jump\t// in\n    tag_176:\n        /* \"#utility.yul\":3099:3100   */\n      0x00\n        /* \"#utility.yul\":3113:3267   */\n    tag_178:\n        /* \"#utility.yul\":3127:3133   */\n      dup4\n        /* \"#utility.yul\":3124:3125   */\n      dup2\n        /* \"#utility.yul\":3121:3134   */\n      lt\n        /* \"#utility.yul\":3113:3267   */\n      iszero\n      tag_180\n      jumpi\n        /* \"#utility.yul\":3201:3208   */\n      dup2\n        /* \"#utility.yul\":3195:3209   */\n      sload\n        /* \"#utility.yul\":3191:3192   */\n      dup2\n        /* \"#utility.yul\":3186:3189   */\n      dup10\n        /* \"#utility.yul\":3182:3193   */\n      add\n        /* \"#utility.yul\":3175:3210   */\n      mstore\n        /* \"#utility.yul\":3251:3252   */\n      0x01\n        /* \"#utility.yul\":3242:3249   */\n      dup3\n        /* \"#utility.yul\":3238:3253   */\n      add\n        /* \"#utility.yul\":3227:3253   */\n      swap2\n      pop\n        /* \"#utility.yul\":3149:3153   */\n      0x20\n        /* \"#utility.yul\":3146:3147   */\n      dup2\n        /* \"#utility.yul\":3142:3154   */\n      add\n        /* \"#utility.yul\":3137:3154   */\n      swap1\n      pop\n        /* \"#utility.yul\":3113:3267   */\n      jump(tag_178)\n    tag_180:\n        /* \"#utility.yul\":3296:3297   */\n      dup1\n        /* \"#utility.yul\":3291:3294   */\n      dup9\n        /* \"#utility.yul\":3287:3298   */\n      add\n        /* \"#utility.yul\":3280:3298   */\n      swap6\n      pop\n        /* \"#utility.yul\":2979:3308   */\n      pop\n      pop\n        /* \"#utility.yul\":2795:3308   */\n    tag_173:\n      pop\n        /* \"#utility.yul\":2601:3314   */\n      pop\n      pop\n      swap3\n      swap2\n      pop\n      pop\n      jump\t// out\n        /* \"#utility.yul\":3320:3640   */\n    tag_181:\n      0x00\n        /* \"#utility.yul\":3483:3550   */\n      tag_183\n        /* \"#utility.yul\":3547:3549   */\n      0x16\n        /* \"#utility.yul\":3542:3545   */\n      dup4\n        /* \"#utility.yul\":3483:3550   */\n      tag_164\n      jump\t// in\n    tag_183:\n        /* \"#utility.yul\":3476:3550   */\n      swap2\n      pop\n        /* \"#utility.yul\":3580:3604   */\n      0x6d757374206265207468652066697273742074696d6500000000000000000000\n        /* \"#utility.yul\":3576:3577   */\n      0x00\n        /* \"#utility.yul\":3571:3574   */\n      dup4\n        /* \"#utility.yul\":3567:3578   */\n      add\n        /* \"#utility.yul\":3560:3605   */\n      mstore\n        /* \"#utility.yul\":3631:3633   */\n      0x20\n        /* \"#utility.yul\":3626:3629   */\n      dup3\n        /* \"#utility.yul\":3622:3634   */\n      add\n        /* \"#utility.yul\":3615:3634   */\n      swap1\n      pop\n        /* \"#utility.yul\":3466:3640   */\n      swap2\n      swap1\n      pop\n      jump\t// out\n        /* \"#utility.yul\":3646:3949   */\n    tag_184:\n      0x00\n        /* \"#utility.yul\":3809:3875   */\n      tag_186\n        /* \"#utility.yul\":3873:3874   */\n      0x06\n        /* \"#utility.yul\":3868:3871   */\n      dup4\n        /* \"#utility.yul\":3809:3875   */\n      tag_164\n      jump\t// in\n    tag_186:\n        /* \"#utility.yul\":3802:3875   */\n      swap2\n      pop\n        /* \"#utility.yul\":3905:3913   */\n      0x4661696c65640000000000000000000000000000000000000000000000000000\n        /* \"#utility.yul\":3901:3902   */\n      0x00\n        /* \"#utility.yul\":3896:3899   */\n      dup4\n        /* \"#utility.yul\":3892:3903   */\n      add\n        /* \"#utility.yul\":3885:3914   */\n      mstore\n        /* \"#utility.yul\":3940:3942   */\n      0x20\n        /* \"#utility.yul\":3935:3938   */\n      dup3\n        /* \"#utility.yul\":3931:3943   */\n      add\n        /* \"#utility.yul\":3924:3943   */\n      swap1\n      pop\n        /* \"#utility.yul\":3792:3949   */\n      swap2\n      swap1\n      pop\n      jump\t// out\n        /* \"#utility.yul\":3955:4270   */\n    tag_187:\n      0x00\n        /* \"#utility.yul\":4118:4185   */\n      tag_189\n        /* \"#utility.yul\":4182:4184   */\n      0x11\n        /* \"#utility.yul\":4177:4180   */\n      dup4\n        /* \"#utility.yul\":4118:4185   */\n      tag_164\n      jump\t// in\n    tag_189:\n        /* \"#utility.yul\":4111:4185   */\n      swap2\n      pop\n        /* \"#utility.yul\":4215:4234   */\n      0x4d75737420626520302e30314574686572000000000000000000000000000000\n        /* \"#utility.yul\":4211:4212   */\n      0x00\n        /* \"#utility.yul\":4206:4209   */\n      dup4\n        /* \"#utility.yul\":4202:4213   */\n      add\n        /* \"#utility.yul\":4195:4235   */\n      mstore\n        /* \"#utility.yul\":4261:4263   */\n      0x20\n        /* \"#utility.yul\":4256:4259   */\n      dup3\n        /* \"#utility.yul\":4252:4264   */\n      add\n        /* \"#utility.yul\":4245:4264   */\n      swap1\n      pop\n        /* \"#utility.yul\":4101:4270   */\n      swap2\n      swap1\n      pop\n      jump\t// out\n        /* \"#utility.yul\":4276:4591   */\n    tag_190:\n      0x00\n        /* \"#utility.yul\":4439:4506   */\n      tag_192\n        /* \"#utility.yul\":4503:4505   */\n      0x11\n        /* \"#utility.yul\":4498:4501   */\n      dup4\n        /* \"#utility.yul\":4439:4506   */\n      tag_164\n      jump\t// in\n    tag_192:\n        /* \"#utility.yul\":4432:4506   */\n      swap2\n      pop\n        /* \"#utility.yul\":4536:4555   */\n      0x596f7520617265206e6f74204f776e6572000000000000000000000000000000\n        /* \"#utility.yul\":4532:4533   */\n      0x00\n        /* \"#utility.yul\":4527:4530   */\n      dup4\n        /* \"#utility.yul\":4523:4534   */\n      add\n        /* \"#utility.yul\":4516:4556   */\n      mstore\n        /* \"#utility.yul\":4582:4584   */\n      0x20\n        /* \"#utility.yul\":4577:4580   */\n      dup3\n        /* \"#utility.yul\":4573:4585   */\n      add\n        /* \"#utility.yul\":4566:4585   */\n      swap1\n      pop\n        /* \"#utility.yul\":4422:4591   */\n      swap2\n      swap1\n      pop\n      jump\t// out\n        /* \"#utility.yul\":4597:4894   */\n    tag_193:\n      0x00\n        /* \"#utility.yul\":4777:4860   */\n      tag_195\n        /* \"#utility.yul\":4858:4859   */\n      0x00\n        /* \"#utility.yul\":4853:4856   */\n      dup4\n        /* \"#utility.yul\":4777:4860   */\n      tag_196\n      jump\t// in\n    tag_195:\n        /* \"#utility.yul\":4770:4860   */\n      swap2\n      pop\n        /* \"#utility.yul\":4886:4887   */\n      0x00\n        /* \"#utility.yul\":4881:4884   */\n      dup3\n        /* \"#utility.yul\":4877:4888   */\n      add\n        /* \"#utility.yul\":4870:4888   */\n      swap1\n      pop\n        /* \"#utility.yul\":4760:4894   */\n      swap2\n      swap1\n      pop\n      jump\t// out\n        /* \"#utility.yul\":4900:5018   */\n    tag_197:\n        /* \"#utility.yul\":4987:5011   */\n      tag_199\n        /* \"#utility.yul\":5005:5010   */\n      dup2\n        /* \"#utility.yul\":4987:5011   */\n      tag_200\n      jump\t// in\n    tag_199:\n        /* \"#utility.yul\":4982:4985   */\n      dup3\n        /* \"#utility.yul\":4975:5012   */\n      mstore\n        /* \"#utility.yul\":4965:5018   */\n      pop\n      pop\n      jump\t// out\n        /* \"#utility.yul\":5024:5403   */\n    tag_25:\n      0x00\n        /* \"#utility.yul\":5230:5377   */\n      tag_202\n        /* \"#utility.yul\":5373:5376   */\n      dup3\n        /* \"#utility.yul\":5230:5377   */\n      tag_193\n      jump\t// in\n    tag_202:\n        /* \"#utility.yul\":5223:5377   */\n      swap2\n      pop\n        /* \"#utility.yul\":5394:5397   */\n      dup2\n        /* \"#utility.yul\":5387:5397   */\n      swap1\n      pop\n        /* \"#utility.yul\":5212:5403   */\n      swap2\n      swap1\n      pop\n      jump\t// out\n        /* \"#utility.yul\":5409:5631   */\n    tag_64:\n      0x00\n        /* \"#utility.yul\":5540:5542   */\n      0x20\n        /* \"#utility.yul\":5529:5538   */\n      dup3\n        /* \"#utility.yul\":5525:5543   */\n      add\n        /* \"#utility.yul\":5517:5543   */\n      swap1\n      pop\n        /* \"#utility.yul\":5553:5624   */\n      tag_204\n        /* \"#utility.yul\":5621:5622   */\n      0x00\n        /* \"#utility.yul\":5610:5619   */\n      dup4\n        /* \"#utility.yul\":5606:5623   */\n      add\n        /* \"#utility.yul\":5597:5603   */\n      dup5\n        /* \"#utility.yul\":5553:5624   */\n      tag_151\n      jump\t// in\n    tag_204:\n        /* \"#utility.yul\":5507:5631   */\n      swap3\n      swap2\n      pop\n      pop\n      jump\t// out\n        /* \"#utility.yul\":5637:5847   */\n    tag_79:\n      0x00\n        /* \"#utility.yul\":5762:5764   */\n      0x20\n        /* \"#utility.yul\":5751:5760   */\n      dup3\n        /* \"#utility.yul\":5747:5765   */\n      add\n        /* \"#utility.yul\":5739:5765   */\n      swap1\n      pop\n        /* \"#utility.yul\":5775:5840   */\n      tag_206\n        /* \"#utility.yul\":5837:5838   */\n      0x00\n        /* \"#utility.yul\":5826:5835   */\n      dup4\n        /* \"#utility.yul\":5822:5839   */\n      add\n        /* \"#utility.yul\":5813:5819   */\n      dup5\n        /* \"#utility.yul\":5775:5840   */\n      tag_155\n      jump\t// in\n    tag_206:\n        /* \"#utility.yul\":5729:5847   */\n      swap3\n      swap2\n      pop\n      pop\n      jump\t// out\n        /* \"#utility.yul\":5853:6276   */\n    tag_59:\n      0x00\n        /* \"#utility.yul\":6032:6034   */\n      0x40\n        /* \"#utility.yul\":6021:6030   */\n      dup3\n        /* \"#utility.yul\":6017:6035   */\n      add\n        /* \"#utility.yul\":6009:6035   */\n      swap1\n      pop\n        /* \"#utility.yul\":6081:6090   */\n      dup2\n        /* \"#utility.yul\":6075:6079   */\n      dup2\n        /* \"#utility.yul\":6071:6091   */\n      sub\n        /* \"#utility.yul\":6067:6068   */\n      0x00\n        /* \"#utility.yul\":6056:6065   */\n      dup4\n        /* \"#utility.yul\":6052:6069   */\n      add\n        /* \"#utility.yul\":6045:6092   */\n      mstore\n        /* \"#utility.yul\":6109:6187   */\n      tag_208\n        /* \"#utility.yul\":6182:6186   */\n      dup2\n        /* \"#utility.yul\":6173:6179   */\n      dup6\n        /* \"#utility.yul\":6109:6187   */\n      tag_159\n      jump\t// in\n    tag_208:\n        /* \"#utility.yul\":6101:6187   */\n      swap1\n      pop\n        /* \"#utility.yul\":6197:6269   */\n      tag_209\n        /* \"#utility.yul\":6265:6267   */\n      0x20\n        /* \"#utility.yul\":6254:6263   */\n      dup4\n        /* \"#utility.yul\":6250:6268   */\n      add\n        /* \"#utility.yul\":6241:6247   */\n      dup5\n        /* \"#utility.yul\":6197:6269   */\n      tag_197\n      jump\t// in\n    tag_209:\n        /* \"#utility.yul\":5999:6276   */\n      swap4\n      swap3\n      pop\n      pop\n      pop\n      jump\t// out\n        /* \"#utility.yul\":6282:6589   */\n    tag_82:\n      0x00\n        /* \"#utility.yul\":6430:6432   */\n      0x20\n        /* \"#utility.yul\":6419:6428   */\n      dup3\n        /* \"#utility.yul\":6415:6433   */\n      add\n        /* \"#utility.yul\":6407:6433   */\n      swap1\n      pop\n        /* \"#utility.yul\":6479:6488   */\n      dup2\n        /* \"#utility.yul\":6473:6477   */\n      dup2\n        /* \"#utility.yul\":6469:6489   */\n      sub\n        /* \"#utility.yul\":6465:6466   */\n      0x00\n        /* \"#utility.yul\":6454:6463   */\n      dup4\n        /* \"#utility.yul\":6450:6467   */\n      add\n        /* \"#utility.yul\":6443:6490   */\n      mstore\n        /* \"#utility.yul\":6507:6582   */\n      tag_211\n        /* \"#utility.yul\":6577:6581   */\n      dup2\n        /* \"#utility.yul\":6568:6574   */\n      dup5\n        /* \"#utility.yul\":6507:6582   */\n      tag_169\n      jump\t// in\n    tag_211:\n        /* \"#utility.yul\":6499:6582   */\n      swap1\n      pop\n        /* \"#utility.yul\":6397:6589   */\n      swap3\n      swap2\n      pop\n      pop\n      jump\t// out\n        /* \"#utility.yul\":6595:7014   */\n    tag_20:\n      0x00\n        /* \"#utility.yul\":6799:6801   */\n      0x20\n        /* \"#utility.yul\":6788:6797   */\n      dup3\n        /* \"#utility.yul\":6784:6802   */\n      add\n        /* \"#utility.yul\":6776:6802   */\n      swap1\n      pop\n        /* \"#utility.yul\":6848:6857   */\n      dup2\n        /* \"#utility.yul\":6842:6846   */\n      dup2\n        /* \"#utility.yul\":6838:6858   */\n      sub\n        /* \"#utility.yul\":6834:6835   */\n      0x00\n        /* \"#utility.yul\":6823:6832   */\n      dup4\n        /* \"#utility.yul\":6819:6836   */\n      add\n        /* \"#utility.yul\":6812:6859   */\n      mstore\n        /* \"#utility.yul\":6876:7007   */\n      tag_213\n        /* \"#utility.yul\":7002:7006   */\n      dup2\n        /* \"#utility.yul\":6876:7007   */\n      tag_181\n      jump\t// in\n    tag_213:\n        /* \"#utility.yul\":6868:7007   */\n      swap1\n      pop\n        /* \"#utility.yul\":6766:7014   */\n      swap2\n      swap1\n      pop\n      jump\t// out\n        /* \"#utility.yul\":7020:7439   */\n    tag_31:\n      0x00\n        /* \"#utility.yul\":7224:7226   */\n      0x20\n        /* \"#utility.yul\":7213:7222   */\n      dup3\n        /* \"#utility.yul\":7209:7227   */\n      add\n        /* \"#utility.yul\":7201:7227   */\n      swap1\n      pop\n        /* \"#utility.yul\":7273:7282   */\n      dup2\n        /* \"#utility.yul\":7267:7271   */\n      dup2\n        /* \"#utility.yul\":7263:7283   */\n      sub\n        /* \"#utility.yul\":7259:7260   */\n      0x00\n        /* \"#utility.yul\":7248:7257   */\n      dup4\n        /* \"#utility.yul\":7244:7261   */\n      add\n        /* \"#utility.yul\":7237:7284   */\n      mstore\n        /* \"#utility.yul\":7301:7432   */\n      tag_215\n        /* \"#utility.yul\":7427:7431   */\n      dup2\n        /* \"#utility.yul\":7301:7432   */\n      tag_184\n      jump\t// in\n    tag_215:\n        /* \"#utility.yul\":7293:7432   */\n      swap1\n      pop\n        /* \"#utility.yul\":7191:7439   */\n      swap2\n      swap1\n      pop\n      jump\t// out\n        /* \"#utility.yul\":7445:7864   */\n    tag_17:\n      0x00\n        /* \"#utility.yul\":7649:7651   */\n      0x20\n        /* \"#utility.yul\":7638:7647   */\n      dup3\n        /* \"#utility.yul\":7634:7652   */\n      add\n        /* \"#utility.yul\":7626:7652   */\n      swap1\n      pop\n        /* \"#utility.yul\":7698:7707   */\n      dup2\n        /* \"#utility.yul\":7692:7696   */\n      dup2\n        /* \"#utility.yul\":7688:7708   */\n      sub\n        /* \"#utility.yul\":7684:7685   */\n      0x00\n        /* \"#utility.yul\":7673:7682   */\n      dup4\n        /* \"#utility.yul\":7669:7686   */\n      add\n        /* \"#utility.yul\":7662:7709   */\n      mstore\n        /* \"#utility.yul\":7726:7857   */\n      tag_217\n        /* \"#utility.yul\":7852:7856   */\n      dup2\n        /* \"#utility.yul\":7726:7857   */\n      tag_187\n      jump\t// in\n    tag_217:\n        /* \"#utility.yul\":7718:7857   */\n      swap1\n      pop\n        /* \"#utility.yul\":7616:7864   */\n      swap2\n      swap1\n      pop\n      jump\t// out\n        /* \"#utility.yul\":7870:8289   */\n    tag_91:\n      0x00\n        /* \"#utility.yul\":8074:8076   */\n      0x20\n        /* \"#utility.yul\":8063:8072   */\n      dup3\n        /* \"#utility.yul\":8059:8077   */\n      add\n        /* \"#utility.yul\":8051:8077   */\n      swap1\n      pop\n        /* \"#utility.yul\":8123:8132   */\n      dup2\n        /* \"#utility.yul\":8117:8121   */\n      dup2\n        /* \"#utility.yul\":8113:8133   */\n      sub\n        /* \"#utility.yul\":8109:8110   */\n      0x00\n        /* \"#utility.yul\":8098:8107   */\n      dup4\n        /* \"#utility.yul\":8094:8111   */\n      add\n        /* \"#utility.yul\":8087:8134   */\n      mstore\n        /* \"#utility.yul\":8151:8282   */\n      tag_219\n        /* \"#utility.yul\":8277:8281   */\n      dup2\n        /* \"#utility.yul\":8151:8282   */\n      tag_190\n      jump\t// in\n    tag_219:\n        /* \"#utility.yul\":8143:8282   */\n      swap1\n      pop\n        /* \"#utility.yul\":8041:8289   */\n      swap2\n      swap1\n      pop\n      jump\t// out\n        /* \"#utility.yul\":8295:8517   */\n    tag_37:\n      0x00\n        /* \"#utility.yul\":8426:8428   */\n      0x20\n        /* \"#utility.yul\":8415:8424   */\n      dup3\n        /* \"#utility.yul\":8411:8429   */\n      add\n        /* \"#utility.yul\":8403:8429   */\n      swap1\n      pop\n        /* \"#utility.yul\":8439:8510   */\n      tag_221\n        /* \"#utility.yul\":8507:8508   */\n      0x00\n        /* \"#utility.yul\":8496:8505   */\n      dup4\n        /* \"#utility.yul\":8492:8509   */\n      add\n        /* \"#utility.yul\":8483:8489   */\n      dup5\n        /* \"#utility.yul\":8439:8510   */\n      tag_197\n      jump\t// in\n    tag_221:\n        /* \"#utility.yul\":8393:8517   */\n      swap3\n      swap2\n      pop\n      pop\n      jump\t// out\n        /* \"#utility.yul\":8523:8806   */\n    tag_126:\n      0x00\n        /* \"#utility.yul\":8589:8591   */\n      0x40\n        /* \"#utility.yul\":8583:8592   */\n      mload\n        /* \"#utility.yul\":8573:8592   */\n      swap1\n      pop\n        /* \"#utility.yul\":8631:8635   */\n      dup2\n        /* \"#utility.yul\":8623:8629   */\n      dup2\n        /* \"#utility.yul\":8619:8636   */\n      add\n        /* \"#utility.yul\":8738:8744   */\n      dup2\n        /* \"#utility.yul\":8726:8736   */\n      dup2\n        /* \"#utility.yul\":8723:8745   */\n      lt\n        /* \"#utility.yul\":8702:8720   */\n      0xffffffffffffffff\n        /* \"#utility.yul\":8690:8700   */\n      dup3\n        /* \"#utility.yul\":8687:8721   */\n      gt\n        /* \"#utility.yul\":8684:8746   */\n      or\n        /* \"#utility.yul\":8681:8683   */\n      iszero\n      tag_223\n      jumpi\n        /* \"#utility.yul\":8749:8767   */\n      tag_224\n      tag_225\n      jump\t// in\n    tag_224:\n        /* \"#utility.yul\":8681:8683   */\n    tag_223:\n        /* \"#utility.yul\":8789:8799   */\n      dup1\n        /* \"#utility.yul\":8785:8787   */\n      0x40\n        /* \"#utility.yul\":8778:8800   */\n      mstore\n        /* \"#utility.yul\":8563:8806   */\n      pop\n      swap2\n      swap1\n      pop\n      jump\t// out\n        /* \"#utility.yul\":8812:9144   */\n    tag_125:\n      0x00\n        /* \"#utility.yul\":8964:8982   */\n      0xffffffffffffffff\n        /* \"#utility.yul\":8956:8962   */\n      dup3\n        /* \"#utility.yul\":8953:8983   */\n      gt\n        /* \"#utility.yul\":8950:8952   */\n      iszero\n      tag_227\n      jumpi\n        /* \"#utility.yul\":8986:9004   */\n      tag_228\n      tag_225\n      jump\t// in\n    tag_228:\n        /* \"#utility.yul\":8950:8952   */\n    tag_227:\n        /* \"#utility.yul\":9071:9075   */\n      0x1f\n        /* \"#utility.yul\":9067:9076   */\n      not\n        /* \"#utility.yul\":9060:9064   */\n      0x1f\n        /* \"#utility.yul\":9052:9058   */\n      dup4\n        /* \"#utility.yul\":9048:9065   */\n      add\n        /* \"#utility.yul\":9044:9077   */\n      and\n        /* \"#utility.yul\":9036:9077   */\n      swap1\n      pop\n        /* \"#utility.yul\":9132:9136   */\n      0x20\n        /* \"#utility.yul\":9126:9130   */\n      dup2\n        /* \"#utility.yul\":9122:9137   */\n      add\n        /* \"#utility.yul\":9114:9137   */\n      swap1\n      pop\n        /* \"#utility.yul\":8879:9144   */\n      swap2\n      swap1\n      pop\n      jump\t// out\n        /* \"#utility.yul\":9150:9291   */\n    tag_177:\n      0x00\n        /* \"#utility.yul\":9222:9225   */\n      dup2\n        /* \"#utility.yul\":9214:9225   */\n      swap1\n      pop\n        /* \"#utility.yul\":9245:9248   */\n      dup2\n        /* \"#utility.yul\":9242:9243   */\n      0x00\n        /* \"#utility.yul\":9235:9249   */\n      mstore\n        /* \"#utility.yul\":9279:9283   */\n      0x20\n        /* \"#utility.yul\":9276:9277   */\n      0x00\n        /* \"#utility.yul\":9266:9284   */\n      keccak256\n        /* \"#utility.yul\":9258:9284   */\n      swap1\n      pop\n        /* \"#utility.yul\":9204:9291   */\n      swap2\n      swap1\n      pop\n      jump\t// out\n        /* \"#utility.yul\":9297:9396   */\n    tag_162:\n      0x00\n        /* \"#utility.yul\":9383:9388   */\n      dup2\n        /* \"#utility.yul\":9377:9389   */\n      mload\n        /* \"#utility.yul\":9367:9389   */\n      swap1\n      pop\n        /* \"#utility.yul\":9356:9396   */\n      swap2\n      swap1\n      pop\n      jump\t// out\n        /* \"#utility.yul\":9402:9549   */\n    tag_196:\n      0x00\n        /* \"#utility.yul\":9540:9543   */\n      dup2\n        /* \"#utility.yul\":9525:9543   */\n      swap1\n      pop\n        /* \"#utility.yul\":9515:9549   */\n      swap3\n      swap2\n      pop\n      pop\n      jump\t// out\n        /* \"#utility.yul\":9555:9724   */\n    tag_164:\n      0x00\n        /* \"#utility.yul\":9673:9679   */\n      dup3\n        /* \"#utility.yul\":9668:9671   */\n      dup3\n        /* \"#utility.yul\":9661:9680   */\n      mstore\n        /* \"#utility.yul\":9713:9717   */\n      0x20\n        /* \"#utility.yul\":9708:9711   */\n      dup3\n        /* \"#utility.yul\":9704:9718   */\n      add\n        /* \"#utility.yul\":9689:9718   */\n      swap1\n      pop\n        /* \"#utility.yul\":9651:9724   */\n      swap3\n      swap2\n      pop\n      pop\n      jump\t// out\n        /* \"#utility.yul\":9730:10035   */\n    tag_84:\n      0x00\n        /* \"#utility.yul\":9789:9809   */\n      tag_234\n        /* \"#utility.yul\":9807:9808   */\n      dup3\n        /* \"#utility.yul\":9789:9809   */\n      tag_200\n      jump\t// in\n    tag_234:\n        /* \"#utility.yul\":9784:9809   */\n      swap2\n      pop\n        /* \"#utility.yul\":9823:9843   */\n      tag_235\n        /* \"#utility.yul\":9841:9842   */\n      dup4\n        /* \"#utility.yul\":9823:9843   */\n      tag_200\n      jump\t// in\n    tag_235:\n        /* \"#utility.yul\":9818:9843   */\n      swap3\n      pop\n        /* \"#utility.yul\":9977:9978   */\n      dup3\n        /* \"#utility.yul\":9909:9975   */\n      0xffffffffffffffffffffffffffffffffffffffffffffffffffffffffffffffff\n        /* \"#utility.yul\":9905:9979   */\n      sub\n        /* \"#utility.yul\":9902:9903   */\n      dup3\n        /* \"#utility.yul\":9899:9980   */\n      gt\n        /* \"#utility.yul\":9896:9898   */\n      iszero\n      tag_236\n      jumpi\n        /* \"#utility.yul\":9983:10001   */\n      tag_237\n      tag_238\n      jump\t// in\n    tag_237:\n        /* \"#utility.yul\":9896:9898   */\n    tag_236:\n        /* \"#utility.yul\":10027:10028   */\n      dup3\n        /* \"#utility.yul\":10024:10025   */\n      dup3\n        /* \"#utility.yul\":10020:10029   */\n      add\n        /* \"#utility.yul\":10013:10029   */\n      swap1\n      pop\n        /* \"#utility.yul\":9774:10035   */\n      swap3\n      swap2\n      pop\n      pop\n      jump\t// out\n        /* \"#utility.yul\":10041:10137   */\n    tag_154:\n      0x00\n        /* \"#utility.yul\":10107:10131   */\n      tag_240\n        /* \"#utility.yul\":10125:10130   */\n      dup3\n        /* \"#utility.yul\":10107:10131   */\n      tag_241\n      jump\t// in\n    tag_240:\n        /* \"#utility.yul\":10096:10131   */\n      swap1\n      pop\n        /* \"#utility.yul\":10086:10137   */\n      swap2\n      swap1\n      pop\n      jump\t// out\n        /* \"#utility.yul\":10143:10233   */\n    tag_158:\n      0x00\n        /* \"#utility.yul\":10220:10225   */\n      dup2\n        /* \"#utility.yul\":10213:10226   */\n      iszero\n        /* \"#utility.yul\":10206:10227   */\n      iszero\n        /* \"#utility.yul\":10195:10227   */\n      swap1\n      pop\n        /* \"#utility.yul\":10185:10233   */\n      swap2\n      swap1\n      pop\n      jump\t// out\n        /* \"#utility.yul\":10239:10365   */\n    tag_241:\n      0x00\n        /* \"#utility.yul\":10316:10358   */\n      0xffffffffffffffffffffffffffffffffffffffff\n        /* \"#utility.yul\":10309:10314   */\n      dup3\n        /* \"#utility.yul\":10305:10359   */\n      and\n        /* \"#utility.yul\":10294:10359   */\n      swap1\n      pop\n        /* \"#utility.yul\":10284:10365   */\n      swap2\n      swap1\n      pop\n      jump\t// out\n        /* \"#utility.yul\":10371:10448   */\n    tag_200:\n      0x00\n        /* \"#utility.yul\":10437:10442   */\n      dup2\n        /* \"#utility.yul\":10426:10442   */\n      swap1\n      pop\n        /* \"#utility.yul\":10416:10448   */\n      swap2\n      swap1\n      pop\n      jump\t// out\n        /* \"#utility.yul\":10454:10608   */\n    tag_129:\n        /* \"#utility.yul\":10538:10544   */\n      dup3\n        /* \"#utility.yul\":10533:10536   */\n      dup2\n        /* \"#utility.yul\":10528:10531   */\n      dup4\n        /* \"#utility.yul\":10515:10545   */\n      calldatacopy\n        /* \"#utility.yul\":10600:10601   */\n      0x00\n        /* \"#utility.yul\":10591:10597   */\n      dup4\n        /* \"#utility.yul\":10586:10589   */\n      dup4\n        /* \"#utility.yul\":10582:10598   */\n      add\n        /* \"#utility.yul\":10575:10602   */\n      mstore\n        /* \"#utility.yul\":10505:10608   */\n      pop\n      pop\n      pop\n      jump\t// out\n        /* \"#utility.yul\":10614:10921   */\n    tag_166:\n        /* \"#utility.yul\":10682:10683   */\n      0x00\n        /* \"#utility.yul\":10692:10805   */\n    tag_247:\n        /* \"#utility.yul\":10706:10712   */\n      dup4\n        /* \"#utility.yul\":10703:10704   */\n      dup2\n        /* \"#utility.yul\":10700:10713   */\n      lt\n        /* \"#utility.yul\":10692:10805   */\n      iszero\n      tag_249\n      jumpi\n        /* \"#utility.yul\":10791:10792   */\n      dup1\n        /* \"#utility.yul\":10786:10789   */\n      dup3\n        /* \"#utility.yul\":10782:10793   */\n      add\n        /* \"#utility.yul\":10776:10794   */\n      mload\n        /* \"#utility.yul\":10772:10773   */\n      dup2\n        /* \"#utility.yul\":10767:10770   */\n      dup5\n        /* \"#utility.yul\":10763:10774   */\n      add\n        /* \"#utility.yul\":10756:10795   */\n      mstore\n        /* \"#utility.yul\":10728:10730   */\n      0x20\n        /* \"#utility.yul\":10725:10726   */\n      dup2\n        /* \"#utility.yul\":10721:10731   */\n      add\n        /* \"#utility.yul\":10716:10731   */\n      swap1\n      pop\n        /* \"#utility.yul\":10692:10805   */\n      jump(tag_247)\n    tag_249:\n        /* \"#utility.yul\":10823:10829   */\n      dup4\n        /* \"#utility.yul\":10820:10821   */\n      dup2\n        /* \"#utility.yul\":10817:10830   */\n      gt\n        /* \"#utility.yul\":10814:10816   */\n      iszero\n      tag_250\n      jumpi\n        /* \"#utility.yul\":10903:10904   */\n      0x00\n        /* \"#utility.yul\":10894:10900   */\n      dup5\n        /* \"#utility.yul\":10889:10892   */\n      dup5\n        /* \"#utility.yul\":10885:10901   */\n      add\n        /* \"#utility.yul\":10878:10905   */\n      mstore\n        /* \"#utility.yul\":10814:10816   */\n    tag_250:\n        /* \"#utility.yul\":10663:10921   */\n      pop\n      pop\n      pop\n      pop\n      jump\t// out\n        /* \"#utility.yul\":10927:11247   */\n    tag_100:\n      0x00\n        /* \"#utility.yul\":11008:11009   */\n      0x02\n        /* \"#utility.yul\":11002:11006   */\n      dup3\n        /* \"#utility.yul\":10998:11010   */\n      div\n        /* \"#utility.yul\":10988:11010   */\n      swap1\n      pop\n        /* \"#utility.yul\":11055:11056   */\n      0x01\n        /* \"#utility.yul\":11049:11053   */\n      dup3\n        /* \"#utility.yul\":11045:11057   */\n      and\n        /* \"#utility.yul\":11076:11094   */\n      dup1\n        /* \"#utility.yul\":11066:11068   */\n      tag_252\n      jumpi\n        /* \"#utility.yul\":11132:11136   */\n      0x7f\n        /* \"#utility.yul\":11124:11130   */\n      dup3\n        /* \"#utility.yul\":11120:11137   */\n      and\n        /* \"#utility.yul\":11110:11137   */\n      swap2\n      pop\n        /* \"#utility.yul\":11066:11068   */\n    tag_252:\n        /* \"#utility.yul\":11194:11196   */\n      0x20\n        /* \"#utility.yul\":11186:11192   */\n      dup3\n        /* \"#utility.yul\":11183:11197   */\n      lt\n        /* \"#utility.yul\":11163:11181   */\n      dup2\n        /* \"#utility.yul\":11160:11198   */\n      eq\n        /* \"#utility.yul\":11157:11159   */\n      iszero\n      tag_253\n      jumpi\n        /* \"#utility.yul\":11213:11231   */\n      tag_254\n      tag_255\n      jump\t// in\n    tag_254:\n        /* \"#utility.yul\":11157:11159   */\n    tag_253:\n        /* \"#utility.yul\":10978:11247   */\n      pop\n      swap2\n      swap1\n      pop\n      jump\t// out\n        /* \"#utility.yul\":11253:11486   */\n    tag_22:\n      0x00\n        /* \"#utility.yul\":11315:11339   */\n      tag_257\n        /* \"#utility.yul\":11333:11338   */\n      dup3\n        /* \"#utility.yul\":11315:11339   */\n      tag_200\n      jump\t// in\n    tag_257:\n        /* \"#utility.yul\":11306:11339   */\n      swap2\n      pop\n        /* \"#utility.yul\":11361:11427   */\n      0xffffffffffffffffffffffffffffffffffffffffffffffffffffffffffffffff\n        /* \"#utility.yul\":11354:11359   */\n      dup3\n        /* \"#utility.yul\":11351:11428   */\n      eq\n        /* \"#utility.yul\":11348:11350   */\n      iszero\n      tag_258\n      jumpi\n        /* \"#utility.yul\":11431:11449   */\n      tag_259\n      tag_238\n      jump\t// in\n    tag_259:\n        /* \"#utility.yul\":11348:11350   */\n    tag_258:\n        /* \"#utility.yul\":11478:11479   */\n      0x01\n        /* \"#utility.yul\":11471:11476   */\n      dup3\n        /* \"#utility.yul\":11467:11480   */\n      add\n        /* \"#utility.yul\":11460:11480   */\n      swap1\n      pop\n        /* \"#utility.yul\":11296:11486   */\n      swap2\n      swap1\n      pop\n      jump\t// out\n        /* \"#utility.yul\":11492:11672   */\n    tag_238:\n        /* \"#utility.yul\":11540:11617   */\n      0x4e487b7100000000000000000000000000000000000000000000000000000000\n        /* \"#utility.yul\":11537:11538   */\n      0x00\n        /* \"#utility.yul\":11530:11618   */\n      mstore\n        /* \"#utility.yul\":11637:11641   */\n      0x11\n        /* \"#utility.yul\":11634:11635   */\n      0x04\n        /* \"#utility.yul\":11627:11642   */\n      mstore\n        /* \"#utility.yul\":11661:11665   */\n      0x24\n        /* \"#utility.yul\":11658:11659   */\n      0x00\n        /* \"#utility.yul\":11651:11666   */\n      revert\n        /* \"#utility.yul\":11678:11858   */\n    tag_255:\n        /* \"#utility.yul\":11726:11803   */\n      0x4e487b7100000000000000000000000000000000000000000000000000000000\n        /* \"#utility.yul\":11723:11724   */\n      0x00\n        /* \"#utility.yul\":11716:11804   */\n      mstore\n        /* \"#utility.yul\":11823:11827   */\n      0x22\n        /* \"#utility.yul\":11820:11821   */\n      0x04\n        /* \"#utility.yul\":11813:11828   */\n      mstore\n        /* \"#utility.yul\":11847:11851   */\n      0x24\n        /* \"#utility.yul\":11844:11845   */\n      0x00\n        /* \"#utility.yul\":11837:11852   */\n      revert\n        /* \"#utility.yul\":11864:12044   */\n    tag_225:\n        /* \"#utility.yul\":11912:11989   */\n      0x4e487b7100000000000000000000000000000000000000000000000000000000\n        /* \"#utility.yul\":11909:11910   */\n      0x00\n        /* \"#utility.yul\":11902:11990   */\n      mstore\n        /* \"#utility.yul\":12009:12013   */\n      0x41\n        /* \"#utility.yul\":12006:12007   */\n      0x04\n        /* \"#utility.yul\":11999:12014   */\n      mstore\n        /* \"#utility.yul\":12033:12037   */\n      0x24\n        /* \"#utility.yul\":12030:12031   */\n      0x00\n        /* \"#utility.yul\":12023:12038   */\n      revert\n        /* \"#utility.yul\":12050:12152   */\n    tag_168:\n      0x00\n        /* \"#utility.yul\":12142:12144   */\n      0x1f\n        /* \"#utility.yul\":12138:12145   */\n      not\n        /* \"#utility.yul\":12133:12135   */\n      0x1f\n        /* \"#utility.yul\":12126:12131   */\n      dup4\n        /* \"#utility.yul\":12122:12136   */\n      add\n        /* \"#utility.yul\":12118:12146   */\n      and\n        /* \"#utility.yul\":12108:12146   */\n      swap1\n      pop\n        /* \"#utility.yul\":12098:12152   */\n      swap2\n      swap1\n      pop\n      jump\t// out\n        /* \"#utility.yul\":12158:12280   */\n    tag_133:\n        /* \"#utility.yul\":12231:12255   */\n      tag_265\n        /* \"#utility.yul\":12249:12254   */\n      dup2\n        /* \"#utility.yul\":12231:12255   */\n      tag_154\n      jump\t// in\n    tag_265:\n        /* \"#utility.yul\":12224:12229   */\n      dup2\n        /* \"#utility.yul\":12221:12256   */\n      eq\n        /* \"#utility.yul\":12211:12213   */\n      tag_266\n      jumpi\n        /* \"#utility.yul\":12270:12271   */\n      0x00\n        /* \"#utility.yul\":12267:12268   */\n      dup1\n        /* \"#utility.yul\":12260:12272   */\n      revert\n        /* \"#utility.yul\":12211:12213   */\n    tag_266:\n        /* \"#utility.yul\":12201:12280   */\n      pop\n      jump\t// out\n        /* \"#utility.yul\":12286:12408   */\n    tag_141:\n        /* \"#utility.yul\":12359:12383   */\n      tag_268\n        /* \"#utility.yul\":12377:12382   */\n      dup2\n        /* \"#utility.yul\":12359:12383   */\n      tag_200\n      jump\t// in\n    tag_268:\n        /* \"#utility.yul\":12352:12357   */\n      dup2\n        /* \"#utility.yul\":12349:12384   */\n      eq\n        /* \"#utility.yul\":12339:12341   */\n      tag_269\n      jumpi\n        /* \"#utility.yul\":12398:12399   */\n      0x00\n        /* \"#utility.yul\":12395:12396   */\n      dup1\n        /* \"#utility.yul\":12388:12400   */\n      revert\n        /* \"#utility.yul\":12339:12341   */\n    tag_269:\n        /* \"#utility.yul\":12329:12408   */\n      pop\n      jump\t// out\n\n    auxdata: 0xa26469706673582212204562270d0042b4f4016de5e0a241b67c7b8505a1d8814e3d12b65c7beaf8858864736f6c63430008000033\n}\n",
				"bytecode": {
					"linkReferences": {},
					"object": "60806040526000600155600160045560006005553480156200002057600080fd5b50604051620015d1380380620015d1833981810160405281019062000046919062000260565b336000806101000a81548173ffffffffffffffffffffffffffffffffffffffff021916908373ffffffffffffffffffffffffffffffffffffffff16021790555081600290805190602001906200009e92919062000127565b5080600381905550620000b6620000c460201b60201c565b600181905550505062000571565b60008043426003546002604051602001620000e0919062000346565b6040516020818303038152906040528051906020012060001c620001059190620003f7565b620001119190620003f7565b6200011d9190620003f7565b9050600291505090565b828054620001359062000494565b90600052602060002090601f016020900481019282620001595760008555620001a5565b82601f106200017457805160ff1916838001178555620001a5565b82800160010185558215620001a5579182015b82811115620001a457825182559160200191906001019062000187565b5b509050620001b49190620001b8565b5090565b5b80821115620001d3576000816000905550600101620001b9565b5090565b6000620001ee620001e8846200039e565b6200036a565b9050828152602081018484840111156200020757600080fd5b620002148482856200045e565b509392505050565b600082601f8301126200022e57600080fd5b815162000240848260208601620001d7565b91505092915050565b6000815190506200025a8162000557565b92915050565b600080604083850312156200027457600080fd5b600083015167ffffffffffffffff8111156200028f57600080fd5b6200029d858286016200021c565b9250506020620002b08582860162000249565b9150509250929050565b60008154620002c98162000494565b620002d58186620003e6565b94506001821660008114620002f3576001811462000306576200033d565b60ff19831686526020860193506200033d565b6200031185620003d1565b60005b83811015620003355781548189015260018201915060208101905062000314565b808801955050505b50505092915050565b60006020820190508181036000830152620003628184620002ba565b905092915050565b6000604051905081810181811067ffffffffffffffff8211171562000394576200039362000528565b5b8060405250919050565b600067ffffffffffffffff821115620003bc57620003bb62000528565b5b601f19601f8301169050602081019050919050565b60008190508160005260206000209050919050565b600082825260208201905092915050565b6000620004048262000454565b9150620004118362000454565b9250827fffffffffffffffffffffffffffffffffffffffffffffffffffffffffffffffff03821115620004495762000448620004ca565b5b828201905092915050565b6000819050919050565b60005b838110156200047e57808201518184015260208101905062000461565b838111156200048e576000848401525b50505050565b60006002820490506001821680620004ad57607f821691505b60208210811415620004c457620004c3620004f9565b5b50919050565b7f4e487b7100000000000000000000000000000000000000000000000000000000600052601160045260246000fd5b7f4e487b7100000000000000000000000000000000000000000000000000000000600052602260045260246000fd5b7f4e487b7100000000000000000000000000000000000000000000000000000000600052604160045260246000fd5b620005628162000454565b81146200056e57600080fd5b50565b61105080620005816000396000f3fe60806040526004361061008a5760003560e01c806379ed40bc1161005957806379ed40bc1461042e5780638da5cb5b1461045a5780639f8743f714610485578063a86d2e19146104b0578063cf66b989146104db5761037f565b80630df516d814610384578063146ca531146103af5780634d9b3d5d146103da5780635ef5cc89146104055761037f565b3661037f57662386f26fc1000034146100d8576040517f08c379a00000000000000000000000000000000000000000000000000000000081526004016100cf90610cfb565b60405180910390fd5b6000151560066000600454815260200190815260200160002060003373ffffffffffffffffffffffffffffffffffffffff1673ffffffffffffffffffffffffffffffffffffffff16815260200190815260200160002060009054906101000a900460ff1615151461017e576040517f08c379a000000000000000000000000000000000000000000000000000000000815260040161017590610cbb565b60405180910390fd5b600160066000600454815260200190815260200160002060003373ffffffffffffffffffffffffffffffffffffffff1673ffffffffffffffffffffffffffffffffffffffff16815260200190815260200160002060006101000a81548160ff021916908315150217905550600560008154809291906101fc90610f05565b9190505550600154600554141561032e5760003373ffffffffffffffffffffffffffffffffffffffff164760405161023390610c1e565b60006040518083038185875af1925050503d8060008114610270576040519150601f19603f3d011682016040523d82523d6000602084013e610275565b606091505b50509050806102b9576040517f08c379a00000000000000000000000000000000000000000000000000000000081526004016102b090610cdb565b60405180910390fd5b60006005819055506004600081546102d090610f05565b919050819055506102df610518565b6001819055503373ffffffffffffffffffffffffffffffffffffffff167fd7b5435fa0dd93954c7955210a67950d9385f8cd60631432712709e265ec99ca60405160405180910390a25061037d565b3373ffffffffffffffffffffffffffffffffffffffff167f20384c35af44ae3e0536c765e1cee107339d7ca70b092472c816a3a62e4ba659346040516103749190610d3b565b60405180910390a25b005b600080fd5b34801561039057600080fd5b50610399610573565b6040516103a69190610d3b565b60405180910390f35b3480156103bb57600080fd5b506103c4610579565b6040516103d19190610d3b565b60405180910390f35b3480156103e657600080fd5b506103ef61057f565b6040516103fc9190610d3b565b60405180910390f35b34801561041157600080fd5b5061042c6004803603810190610427919061098e565b610587565b005b34801561043a57600080fd5b50610443610637565b604051610451929190610c69565b60405180910390f35b34801561046657600080fd5b5061046f610763565b60405161047c9190610c33565b60405180910390f35b34801561049157600080fd5b5061049a610787565b6040516104a79190610d3b565b60405180910390f35b3480156104bc57600080fd5b506104c5610791565b6040516104d29190610d3b565b60405180910390f35b3480156104e757600080fd5b5061050260048036038101906104fd91906109e2565b61082a565b60405161050f9190610c4e565b60405180910390f35b600080434260035460026040516020016105329190610c99565b6040516020818303038152906040528051906020012060001c6105559190610df3565b61055f9190610df3565b6105699190610df3565b9050600291505090565b60055481565b60045481565b600047905090565b60008054906101000a900473ffffffffffffffffffffffffffffffffffffffff1673ffffffffffffffffffffffffffffffffffffffff163373ffffffffffffffffffffffffffffffffffffffff1614610615576040517f08c379a000000000000000000000000000000000000000000000000000000000815260040161060c90610d1b565b60405180910390fd5b816002908051906020019061062b929190610859565b50806003819055505050565b606060008060009054906101000a900473ffffffffffffffffffffffffffffffffffffffff1673ffffffffffffffffffffffffffffffffffffffff163373ffffffffffffffffffffffffffffffffffffffff16146106ca576040517f08c379a00000000000000000000000000000000000000000000000000000000081526004016106c190610d1b565b60405180910390fd5b60026003548180546106db90610ed3565b80601f016020809104026020016040519081016040528092919081815260200182805461070790610ed3565b80156107545780601f1061072957610100808354040283529160200191610754565b820191906000526020600020905b81548152906001019060200180831161073757829003601f168201915b50505050509150915091509091565b60008054906101000a900473ffffffffffffffffffffffffffffffffffffffff1681565b6000600454905090565b60008060009054906101000a900473ffffffffffffffffffffffffffffffffffffffff1673ffffffffffffffffffffffffffffffffffffffff163373ffffffffffffffffffffffffffffffffffffffff1614610822576040517f08c379a000000000000000000000000000000000000000000000000000000000815260040161081990610d1b565b60405180910390fd5b600154905090565b60066020528160005260406000206020528060005260406000206000915091509054906101000a900460ff1681565b82805461086590610ed3565b90600052602060002090601f01602090048101928261088757600085556108ce565b82601f106108a057805160ff19168380011785556108ce565b828001600101855582156108ce579182015b828111156108cd5782518255916020019190600101906108b2565b5b5090506108db91906108df565b5090565b5b808211156108f85760008160009055506001016108e0565b5090565b600061090f61090a84610d87565b610d56565b90508281526020810184848401111561092757600080fd5b610932848285610e91565b509392505050565b60008135905061094981610fec565b92915050565b600082601f83011261096057600080fd5b81356109708482602086016108fc565b91505092915050565b60008135905061098881611003565b92915050565b600080604083850312156109a157600080fd5b600083013567ffffffffffffffff8111156109bb57600080fd5b6109c78582860161094f565b92505060206109d885828601610979565b9150509250929050565b600080604083850312156109f557600080fd5b6000610a0385828601610979565b9250506020610a148582860161093a565b9150509250929050565b610a2781610e49565b82525050565b610a3681610e5b565b82525050565b6000610a4782610dcc565b610a518185610de2565b9350610a61818560208601610ea0565b610a6a81610fdb565b840191505092915050565b60008154610a8281610ed3565b610a8c8186610de2565b94506001821660008114610aa75760018114610ab957610aec565b60ff1983168652602086019350610aec565b610ac285610db7565b60005b83811015610ae457815481890152600182019150602081019050610ac5565b808801955050505b50505092915050565b6000610b02601683610de2565b91507f6d757374206265207468652066697273742074696d65000000000000000000006000830152602082019050919050565b6000610b42600683610de2565b91507f4661696c656400000000000000000000000000000000000000000000000000006000830152602082019050919050565b6000610b82601183610de2565b91507f4d75737420626520302e303145746865720000000000000000000000000000006000830152602082019050919050565b6000610bc2601183610de2565b91507f596f7520617265206e6f74204f776e65720000000000000000000000000000006000830152602082019050919050565b6000610c02600083610dd7565b9150600082019050919050565b610c1881610e87565b82525050565b6000610c2982610bf5565b9150819050919050565b6000602082019050610c486000830184610a1e565b92915050565b6000602082019050610c636000830184610a2d565b92915050565b60006040820190508181036000830152610c838185610a3c565b9050610c926020830184610c0f565b9392505050565b60006020820190508181036000830152610cb38184610a75565b905092915050565b60006020820190508181036000830152610cd481610af5565b9050919050565b60006020820190508181036000830152610cf481610b35565b9050919050565b60006020820190508181036000830152610d1481610b75565b9050919050565b60006020820190508181036000830152610d3481610bb5565b9050919050565b6000602082019050610d506000830184610c0f565b92915050565b6000604051905081810181811067ffffffffffffffff82111715610d7d57610d7c610fac565b5b8060405250919050565b600067ffffffffffffffff821115610da257610da1610fac565b5b601f19601f8301169050602081019050919050565b60008190508160005260206000209050919050565b600081519050919050565b600081905092915050565b600082825260208201905092915050565b6000610dfe82610e87565b9150610e0983610e87565b9250827fffffffffffffffffffffffffffffffffffffffffffffffffffffffffffffffff03821115610e3e57610e3d610f4e565b5b828201905092915050565b6000610e5482610e67565b9050919050565b60008115159050919050565b600073ffffffffffffffffffffffffffffffffffffffff82169050919050565b6000819050919050565b82818337600083830152505050565b60005b83811015610ebe578082015181840152602081019050610ea3565b83811115610ecd576000848401525b50505050565b60006002820490506001821680610eeb57607f821691505b60208210811415610eff57610efe610f7d565b5b50919050565b6000610f1082610e87565b91507fffffffffffffffffffffffffffffffffffffffffffffffffffffffffffffffff821415610f4357610f42610f4e565b5b600182019050919050565b7f4e487b7100000000000000000000000000000000000000000000000000000000600052601160045260246000fd5b7f4e487b7100000000000000000000000000000000000000000000000000000000600052602260045260246000fd5b7f4e487b7100000000000000000000000000000000000000000000000000000000600052604160045260246000fd5b6000601f19601f8301169050919050565b610ff581610e49565b811461100057600080fd5b50565b61100c81610e87565b811461101757600080fd5b5056fea26469706673582212204562270d0042b4f4016de5e0a241b67c7b8505a1d8814e3d12b65c7beaf8858864736f6c63430008000033",
					"opcodes": "PUSH1 0x80 PUSH1 0x40 MSTORE PUSH1 0x0 PUSH1 0x1 SSTORE PUSH1 0x1 PUSH1 0x4 SSTORE PUSH1 0x0 PUSH1 0x5 SSTORE CALLVALUE DUP1 ISZERO PUSH3 0x20 JUMPI PUSH1 0x0 DUP1 REVERT JUMPDEST POP PUSH1 0x40 MLOAD PUSH3 0x15D1 CODESIZE SUB DUP1 PUSH3 0x15D1 DUP4 CODECOPY DUP2 DUP2 ADD PUSH1 0x40 MSTORE DUP2 ADD SWAP1 PUSH3 0x46 SWAP2 SWAP1 PUSH3 0x260 JUMP JUMPDEST CALLER PUSH1 0x0 DUP1 PUSH2 0x100 EXP DUP2 SLOAD DUP2 PUSH20 0xFFFFFFFFFFFFFFFFFFFFFFFFFFFFFFFFFFFFFFFF MUL NOT AND SWAP1 DUP4 PUSH20 0xFFFFFFFFFFFFFFFFFFFFFFFFFFFFFFFFFFFFFFFF AND MUL OR SWAP1 SSTORE POP DUP2 PUSH1 0x2 SWAP1 DUP1 MLOAD SWAP1 PUSH1 0x20 ADD SWAP1 PUSH3 0x9E SWAP3 SWAP2 SWAP1 PUSH3 0x127 JUMP JUMPDEST POP DUP1 PUSH1 0x3 DUP2 SWAP1 SSTORE POP PUSH3 0xB6 PUSH3 0xC4 PUSH1 0x20 SHL PUSH1 0x20 SHR JUMP JUMPDEST PUSH1 0x1 DUP2 SWAP1 SSTORE POP POP POP PUSH3 0x571 JUMP JUMPDEST PUSH1 0x0 DUP1 NUMBER TIMESTAMP PUSH1 0x3 SLOAD PUSH1 0x2 PUSH1 0x40 MLOAD PUSH1 0x20 ADD PUSH3 0xE0 SWAP2 SWAP1 PUSH3 0x346 JUMP JUMPDEST PUSH1 0x40 MLOAD PUSH1 0x20 DUP2 DUP4 SUB SUB DUP2 MSTORE SWAP1 PUSH1 0x40 MSTORE DUP1 MLOAD SWAP1 PUSH1 0x20 ADD KECCAK256 PUSH1 0x0 SHR PUSH3 0x105 SWAP2 SWAP1 PUSH3 0x3F7 JUMP JUMPDEST PUSH3 0x111 SWAP2 SWAP1 PUSH3 0x3F7 JUMP JUMPDEST PUSH3 0x11D SWAP2 SWAP1 PUSH3 0x3F7 JUMP JUMPDEST SWAP1 POP PUSH1 0x2 SWAP2 POP POP SWAP1 JUMP JUMPDEST DUP3 DUP1 SLOAD PUSH3 0x135 SWAP1 PUSH3 0x494 JUMP JUMPDEST SWAP1 PUSH1 0x0 MSTORE PUSH1 0x20 PUSH1 0x0 KECCAK256 SWAP1 PUSH1 0x1F ADD PUSH1 0x20 SWAP1 DIV DUP2 ADD SWAP3 DUP3 PUSH3 0x159 JUMPI PUSH1 0x0 DUP6 SSTORE PUSH3 0x1A5 JUMP JUMPDEST DUP3 PUSH1 0x1F LT PUSH3 0x174 JUMPI DUP1 MLOAD PUSH1 0xFF NOT AND DUP4 DUP1 ADD OR DUP6 SSTORE PUSH3 0x1A5 JUMP JUMPDEST DUP3 DUP1 ADD PUSH1 0x1 ADD DUP6 SSTORE DUP3 ISZERO PUSH3 0x1A5 JUMPI SWAP2 DUP3 ADD JUMPDEST DUP3 DUP2 GT ISZERO PUSH3 0x1A4 JUMPI DUP3 MLOAD DUP3 SSTORE SWAP2 PUSH1 0x20 ADD SWAP2 SWAP1 PUSH1 0x1 ADD SWAP1 PUSH3 0x187 JUMP JUMPDEST JUMPDEST POP SWAP1 POP PUSH3 0x1B4 SWAP2 SWAP1 PUSH3 0x1B8 JUMP JUMPDEST POP SWAP1 JUMP JUMPDEST JUMPDEST DUP1 DUP3 GT ISZERO PUSH3 0x1D3 JUMPI PUSH1 0x0 DUP2 PUSH1 0x0 SWAP1 SSTORE POP PUSH1 0x1 ADD PUSH3 0x1B9 JUMP JUMPDEST POP SWAP1 JUMP JUMPDEST PUSH1 0x0 PUSH3 0x1EE PUSH3 0x1E8 DUP5 PUSH3 0x39E JUMP JUMPDEST PUSH3 0x36A JUMP JUMPDEST SWAP1 POP DUP3 DUP2 MSTORE PUSH1 0x20 DUP2 ADD DUP5 DUP5 DUP5 ADD GT ISZERO PUSH3 0x207 JUMPI PUSH1 0x0 DUP1 REVERT JUMPDEST PUSH3 0x214 DUP5 DUP3 DUP6 PUSH3 0x45E JUMP JUMPDEST POP SWAP4 SWAP3 POP POP POP JUMP JUMPDEST PUSH1 0x0 DUP3 PUSH1 0x1F DUP4 ADD SLT PUSH3 0x22E JUMPI PUSH1 0x0 DUP1 REVERT JUMPDEST DUP2 MLOAD PUSH3 0x240 DUP5 DUP3 PUSH1 0x20 DUP7 ADD PUSH3 0x1D7 JUMP JUMPDEST SWAP2 POP POP SWAP3 SWAP2 POP POP JUMP JUMPDEST PUSH1 0x0 DUP2 MLOAD SWAP1 POP PUSH3 0x25A DUP2 PUSH3 0x557 JUMP JUMPDEST SWAP3 SWAP2 POP POP JUMP JUMPDEST PUSH1 0x0 DUP1 PUSH1 0x40 DUP4 DUP6 SUB SLT ISZERO PUSH3 0x274 JUMPI PUSH1 0x0 DUP1 REVERT JUMPDEST PUSH1 0x0 DUP4 ADD MLOAD PUSH8 0xFFFFFFFFFFFFFFFF DUP2 GT ISZERO PUSH3 0x28F JUMPI PUSH1 0x0 DUP1 REVERT JUMPDEST PUSH3 0x29D DUP6 DUP3 DUP7 ADD PUSH3 0x21C JUMP JUMPDEST SWAP3 POP POP PUSH1 0x20 PUSH3 0x2B0 DUP6 DUP3 DUP7 ADD PUSH3 0x249 JUMP JUMPDEST SWAP2 POP POP SWAP3 POP SWAP3 SWAP1 POP JUMP JUMPDEST PUSH1 0x0 DUP2 SLOAD PUSH3 0x2C9 DUP2 PUSH3 0x494 JUMP JUMPDEST PUSH3 0x2D5 DUP2 DUP7 PUSH3 0x3E6 JUMP JUMPDEST SWAP5 POP PUSH1 0x1 DUP3 AND PUSH1 0x0 DUP2 EQ PUSH3 0x2F3 JUMPI PUSH1 0x1 DUP2 EQ PUSH3 0x306 JUMPI PUSH3 0x33D JUMP JUMPDEST PUSH1 0xFF NOT DUP4 AND DUP7 MSTORE PUSH1 0x20 DUP7 ADD SWAP4 POP PUSH3 0x33D JUMP JUMPDEST PUSH3 0x311 DUP6 PUSH3 0x3D1 JUMP JUMPDEST PUSH1 0x0 JUMPDEST DUP4 DUP2 LT ISZERO PUSH3 0x335 JUMPI DUP2 SLOAD DUP2 DUP10 ADD MSTORE PUSH1 0x1 DUP3 ADD SWAP2 POP PUSH1 0x20 DUP2 ADD SWAP1 POP PUSH3 0x314 JUMP JUMPDEST DUP1 DUP9 ADD SWAP6 POP POP POP JUMPDEST POP POP POP SWAP3 SWAP2 POP POP JUMP JUMPDEST PUSH1 0x0 PUSH1 0x20 DUP3 ADD SWAP1 POP DUP2 DUP2 SUB PUSH1 0x0 DUP4 ADD MSTORE PUSH3 0x362 DUP2 DUP5 PUSH3 0x2BA JUMP JUMPDEST SWAP1 POP SWAP3 SWAP2 POP POP JUMP JUMPDEST PUSH1 0x0 PUSH1 0x40 MLOAD SWAP1 POP DUP2 DUP2 ADD DUP2 DUP2 LT PUSH8 0xFFFFFFFFFFFFFFFF DUP3 GT OR ISZERO PUSH3 0x394 JUMPI PUSH3 0x393 PUSH3 0x528 JUMP JUMPDEST JUMPDEST DUP1 PUSH1 0x40 MSTORE POP SWAP2 SWAP1 POP JUMP JUMPDEST PUSH1 0x0 PUSH8 0xFFFFFFFFFFFFFFFF DUP3 GT ISZERO PUSH3 0x3BC JUMPI PUSH3 0x3BB PUSH3 0x528 JUMP JUMPDEST JUMPDEST PUSH1 0x1F NOT PUSH1 0x1F DUP4 ADD AND SWAP1 POP PUSH1 0x20 DUP2 ADD SWAP1 POP SWAP2 SWAP1 POP JUMP JUMPDEST PUSH1 0x0 DUP2 SWAP1 POP DUP2 PUSH1 0x0 MSTORE PUSH1 0x20 PUSH1 0x0 KECCAK256 SWAP1 POP SWAP2 SWAP1 POP JUMP JUMPDEST PUSH1 0x0 DUP3 DUP3 MSTORE PUSH1 0x20 DUP3 ADD SWAP1 POP SWAP3 SWAP2 POP POP JUMP JUMPDEST PUSH1 0x0 PUSH3 0x404 DUP3 PUSH3 0x454 JUMP JUMPDEST SWAP2 POP PUSH3 0x411 DUP4 PUSH3 0x454 JUMP JUMPDEST SWAP3 POP DUP3 PUSH32 0xFFFFFFFFFFFFFFFFFFFFFFFFFFFFFFFFFFFFFFFFFFFFFFFFFFFFFFFFFFFFFFFF SUB DUP3 GT ISZERO PUSH3 0x449 JUMPI PUSH3 0x448 PUSH3 0x4CA JUMP JUMPDEST JUMPDEST DUP3 DUP3 ADD SWAP1 POP SWAP3 SWAP2 POP POP JUMP JUMPDEST PUSH1 0x0 DUP2 SWAP1 POP SWAP2 SWAP1 POP JUMP JUMPDEST PUSH1 0x0 JUMPDEST DUP4 DUP2 LT ISZERO PUSH3 0x47E JUMPI DUP1 DUP3 ADD MLOAD DUP2 DUP5 ADD MSTORE PUSH1 0x20 DUP2 ADD SWAP1 POP PUSH3 0x461 JUMP JUMPDEST DUP4 DUP2 GT ISZERO PUSH3 0x48E JUMPI PUSH1 0x0 DUP5 DUP5 ADD MSTORE JUMPDEST POP POP POP POP JUMP JUMPDEST PUSH1 0x0 PUSH1 0x2 DUP3 DIV SWAP1 POP PUSH1 0x1 DUP3 AND DUP1 PUSH3 0x4AD JUMPI PUSH1 0x7F DUP3 AND SWAP2 POP JUMPDEST PUSH1 0x20 DUP3 LT DUP2 EQ ISZERO PUSH3 0x4C4 JUMPI PUSH3 0x4C3 PUSH3 0x4F9 JUMP JUMPDEST JUMPDEST POP SWAP2 SWAP1 POP JUMP JUMPDEST PUSH32 0x4E487B7100000000000000000000000000000000000000000000000000000000 PUSH1 0x0 MSTORE PUSH1 0x11 PUSH1 0x4 MSTORE PUSH1 0x24 PUSH1 0x0 REVERT JUMPDEST PUSH32 0x4E487B7100000000000000000000000000000000000000000000000000000000 PUSH1 0x0 MSTORE PUSH1 0x22 PUSH1 0x4 MSTORE PUSH1 0x24 PUSH1 0x0 REVERT JUMPDEST PUSH32 0x4E487B7100000000000000000000000000000000000000000000000000000000 PUSH1 0x0 MSTORE PUSH1 0x41 PUSH1 0x4 MSTORE PUSH1 0x24 PUSH1 0x0 REVERT JUMPDEST PUSH3 0x562 DUP2 PUSH3 0x454 JUMP JUMPDEST DUP2 EQ PUSH3 0x56E JUMPI PUSH1 0x0 DUP1 REVERT JUMPDEST POP JUMP JUMPDEST PUSH2 0x1050 DUP1 PUSH3 0x581 PUSH1 0x0 CODECOPY PUSH1 0x0 RETURN INVALID PUSH1 0x80 PUSH1 0x40 MSTORE PUSH1 0x4 CALLDATASIZE LT PUSH2 0x8A JUMPI PUSH1 0x0 CALLDATALOAD PUSH1 0xE0 SHR DUP1 PUSH4 0x79ED40BC GT PUSH2 0x59 JUMPI DUP1 PUSH4 0x79ED40BC EQ PUSH2 0x42E JUMPI DUP1 PUSH4 0x8DA5CB5B EQ PUSH2 0x45A JUMPI DUP1 PUSH4 0x9F8743F7 EQ PUSH2 0x485 JUMPI DUP1 PUSH4 0xA86D2E19 EQ PUSH2 0x4B0 JUMPI DUP1 PUSH4 0xCF66B989 EQ PUSH2 0x4DB JUMPI PUSH2 0x37F JUMP JUMPDEST DUP1 PUSH4 0xDF516D8 EQ PUSH2 0x384 JUMPI DUP1 PUSH4 0x146CA531 EQ PUSH2 0x3AF JUMPI DUP1 PUSH4 0x4D9B3D5D EQ PUSH2 0x3DA JUMPI DUP1 PUSH4 0x5EF5CC89 EQ PUSH2 0x405 JUMPI PUSH2 0x37F JUMP JUMPDEST CALLDATASIZE PUSH2 0x37F JUMPI PUSH7 0x2386F26FC10000 CALLVALUE EQ PUSH2 0xD8 JUMPI PUSH1 0x40 MLOAD PUSH32 0x8C379A000000000000000000000000000000000000000000000000000000000 DUP2 MSTORE PUSH1 0x4 ADD PUSH2 0xCF SWAP1 PUSH2 0xCFB JUMP JUMPDEST PUSH1 0x40 MLOAD DUP1 SWAP2 SUB SWAP1 REVERT JUMPDEST PUSH1 0x0 ISZERO ISZERO PUSH1 0x6 PUSH1 0x0 PUSH1 0x4 SLOAD DUP2 MSTORE PUSH1 0x20 ADD SWAP1 DUP2 MSTORE PUSH1 0x20 ADD PUSH1 0x0 KECCAK256 PUSH1 0x0 CALLER PUSH20 0xFFFFFFFFFFFFFFFFFFFFFFFFFFFFFFFFFFFFFFFF AND PUSH20 0xFFFFFFFFFFFFFFFFFFFFFFFFFFFFFFFFFFFFFFFF AND DUP2 MSTORE PUSH1 0x20 ADD SWAP1 DUP2 MSTORE PUSH1 0x20 ADD PUSH1 0x0 KECCAK256 PUSH1 0x0 SWAP1 SLOAD SWAP1 PUSH2 0x100 EXP SWAP1 DIV PUSH1 0xFF AND ISZERO ISZERO EQ PUSH2 0x17E JUMPI PUSH1 0x40 MLOAD PUSH32 0x8C379A000000000000000000000000000000000000000000000000000000000 DUP2 MSTORE PUSH1 0x4 ADD PUSH2 0x175 SWAP1 PUSH2 0xCBB JUMP JUMPDEST PUSH1 0x40 MLOAD DUP1 SWAP2 SUB SWAP1 REVERT JUMPDEST PUSH1 0x1 PUSH1 0x6 PUSH1 0x0 PUSH1 0x4 SLOAD DUP2 MSTORE PUSH1 0x20 ADD SWAP1 DUP2 MSTORE PUSH1 0x20 ADD PUSH1 0x0 KECCAK256 PUSH1 0x0 CALLER PUSH20 0xFFFFFFFFFFFFFFFFFFFFFFFFFFFFFFFFFFFFFFFF AND PUSH20 0xFFFFFFFFFFFFFFFFFFFFFFFFFFFFFFFFFFFFFFFF AND DUP2 MSTORE PUSH1 0x20 ADD SWAP1 DUP2 MSTORE PUSH1 0x20 ADD PUSH1 0x0 KECCAK256 PUSH1 0x0 PUSH2 0x100 EXP DUP2 SLOAD DUP2 PUSH1 0xFF MUL NOT AND SWAP1 DUP4 ISZERO ISZERO MUL OR SWAP1 SSTORE POP PUSH1 0x5 PUSH1 0x0 DUP2 SLOAD DUP1 SWAP3 SWAP2 SWAP1 PUSH2 0x1FC SWAP1 PUSH2 0xF05 JUMP JUMPDEST SWAP2 SWAP1 POP SSTORE POP PUSH1 0x1 SLOAD PUSH1 0x5 SLOAD EQ ISZERO PUSH2 0x32E JUMPI PUSH1 0x0 CALLER PUSH20 0xFFFFFFFFFFFFFFFFFFFFFFFFFFFFFFFFFFFFFFFF AND SELFBALANCE PUSH1 0x40 MLOAD PUSH2 0x233 SWAP1 PUSH2 0xC1E JUMP JUMPDEST PUSH1 0x0 PUSH1 0x40 MLOAD DUP1 DUP4 SUB DUP2 DUP6 DUP8 GAS CALL SWAP3 POP POP POP RETURNDATASIZE DUP1 PUSH1 0x0 DUP2 EQ PUSH2 0x270 JUMPI PUSH1 0x40 MLOAD SWAP2 POP PUSH1 0x1F NOT PUSH1 0x3F RETURNDATASIZE ADD AND DUP3 ADD PUSH1 0x40 MSTORE RETURNDATASIZE DUP3 MSTORE RETURNDATASIZE PUSH1 0x0 PUSH1 0x20 DUP5 ADD RETURNDATACOPY PUSH2 0x275 JUMP JUMPDEST PUSH1 0x60 SWAP2 POP JUMPDEST POP POP SWAP1 POP DUP1 PUSH2 0x2B9 JUMPI PUSH1 0x40 MLOAD PUSH32 0x8C379A000000000000000000000000000000000000000000000000000000000 DUP2 MSTORE PUSH1 0x4 ADD PUSH2 0x2B0 SWAP1 PUSH2 0xCDB JUMP JUMPDEST PUSH1 0x40 MLOAD DUP1 SWAP2 SUB SWAP1 REVERT JUMPDEST PUSH1 0x0 PUSH1 0x5 DUP2 SWAP1 SSTORE POP PUSH1 0x4 PUSH1 0x0 DUP2 SLOAD PUSH2 0x2D0 SWAP1 PUSH2 0xF05 JUMP JUMPDEST SWAP2 SWAP1 POP DUP2 SWAP1 SSTORE POP PUSH2 0x2DF PUSH2 0x518 JUMP JUMPDEST PUSH1 0x1 DUP2 SWAP1 SSTORE POP CALLER PUSH20 0xFFFFFFFFFFFFFFFFFFFFFFFFFFFFFFFFFFFFFFFF AND PUSH32 0xD7B5435FA0DD93954C7955210A67950D9385F8CD60631432712709E265EC99CA PUSH1 0x40 MLOAD PUSH1 0x40 MLOAD DUP1 SWAP2 SUB SWAP1 LOG2 POP PUSH2 0x37D JUMP JUMPDEST CALLER PUSH20 0xFFFFFFFFFFFFFFFFFFFFFFFFFFFFFFFFFFFFFFFF AND PUSH32 0x20384C35AF44AE3E0536C765E1CEE107339D7CA70B092472C816A3A62E4BA659 CALLVALUE PUSH1 0x40 MLOAD PUSH2 0x374 SWAP2 SWAP1 PUSH2 0xD3B JUMP JUMPDEST PUSH1 0x40 MLOAD DUP1 SWAP2 SUB SWAP1 LOG2 JUMPDEST STOP JUMPDEST PUSH1 0x0 DUP1 REVERT JUMPDEST CALLVALUE DUP1 ISZERO PUSH2 0x390 JUMPI PUSH1 0x0 DUP1 REVERT JUMPDEST POP PUSH2 0x399 PUSH2 0x573 JUMP JUMPDEST PUSH1 0x40 MLOAD PUSH2 0x3A6 SWAP2 SWAP1 PUSH2 0xD3B JUMP JUMPDEST PUSH1 0x40 MLOAD DUP1 SWAP2 SUB SWAP1 RETURN JUMPDEST CALLVALUE DUP1 ISZERO PUSH2 0x3BB JUMPI PUSH1 0x0 DUP1 REVERT JUMPDEST POP PUSH2 0x3C4 PUSH2 0x579 JUMP JUMPDEST PUSH1 0x40 MLOAD PUSH2 0x3D1 SWAP2 SWAP1 PUSH2 0xD3B JUMP JUMPDEST PUSH1 0x40 MLOAD DUP1 SWAP2 SUB SWAP1 RETURN JUMPDEST CALLVALUE DUP1 ISZERO PUSH2 0x3E6 JUMPI PUSH1 0x0 DUP1 REVERT JUMPDEST POP PUSH2 0x3EF PUSH2 0x57F JUMP JUMPDEST PUSH1 0x40 MLOAD PUSH2 0x3FC SWAP2 SWAP1 PUSH2 0xD3B JUMP JUMPDEST PUSH1 0x40 MLOAD DUP1 SWAP2 SUB SWAP1 RETURN JUMPDEST CALLVALUE DUP1 ISZERO PUSH2 0x411 JUMPI PUSH1 0x0 DUP1 REVERT JUMPDEST POP PUSH2 0x42C PUSH1 0x4 DUP1 CALLDATASIZE SUB DUP2 ADD SWAP1 PUSH2 0x427 SWAP2 SWAP1 PUSH2 0x98E JUMP JUMPDEST PUSH2 0x587 JUMP JUMPDEST STOP JUMPDEST CALLVALUE DUP1 ISZERO PUSH2 0x43A JUMPI PUSH1 0x0 DUP1 REVERT JUMPDEST POP PUSH2 0x443 PUSH2 0x637 JUMP JUMPDEST PUSH1 0x40 MLOAD PUSH2 0x451 SWAP3 SWAP2 SWAP1 PUSH2 0xC69 JUMP JUMPDEST PUSH1 0x40 MLOAD DUP1 SWAP2 SUB SWAP1 RETURN JUMPDEST CALLVALUE DUP1 ISZERO PUSH2 0x466 JUMPI PUSH1 0x0 DUP1 REVERT JUMPDEST POP PUSH2 0x46F PUSH2 0x763 JUMP JUMPDEST PUSH1 0x40 MLOAD PUSH2 0x47C SWAP2 SWAP1 PUSH2 0xC33 JUMP JUMPDEST PUSH1 0x40 MLOAD DUP1 SWAP2 SUB SWAP1 RETURN JUMPDEST CALLVALUE DUP1 ISZERO PUSH2 0x491 JUMPI PUSH1 0x0 DUP1 REVERT JUMPDEST POP PUSH2 0x49A PUSH2 0x787 JUMP JUMPDEST PUSH1 0x40 MLOAD PUSH2 0x4A7 SWAP2 SWAP1 PUSH2 0xD3B JUMP JUMPDEST PUSH1 0x40 MLOAD DUP1 SWAP2 SUB SWAP1 RETURN JUMPDEST CALLVALUE DUP1 ISZERO PUSH2 0x4BC JUMPI PUSH1 0x0 DUP1 REVERT JUMPDEST POP PUSH2 0x4C5 PUSH2 0x791 JUMP JUMPDEST PUSH1 0x40 MLOAD PUSH2 0x4D2 SWAP2 SWAP1 PUSH2 0xD3B JUMP JUMPDEST PUSH1 0x40 MLOAD DUP1 SWAP2 SUB SWAP1 RETURN JUMPDEST CALLVALUE DUP1 ISZERO PUSH2 0x4E7 JUMPI PUSH1 0x0 DUP1 REVERT JUMPDEST POP PUSH2 0x502 PUSH1 0x4 DUP1 CALLDATASIZE SUB DUP2 ADD SWAP1 PUSH2 0x4FD SWAP2 SWAP1 PUSH2 0x9E2 JUMP JUMPDEST PUSH2 0x82A JUMP JUMPDEST PUSH1 0x40 MLOAD PUSH2 0x50F SWAP2 SWAP1 PUSH2 0xC4E JUMP JUMPDEST PUSH1 0x40 MLOAD DUP1 SWAP2 SUB SWAP1 RETURN JUMPDEST PUSH1 0x0 DUP1 NUMBER TIMESTAMP PUSH1 0x3 SLOAD PUSH1 0x2 PUSH1 0x40 MLOAD PUSH1 0x20 ADD PUSH2 0x532 SWAP2 SWAP1 PUSH2 0xC99 JUMP JUMPDEST PUSH1 0x40 MLOAD PUSH1 0x20 DUP2 DUP4 SUB SUB DUP2 MSTORE SWAP1 PUSH1 0x40 MSTORE DUP1 MLOAD SWAP1 PUSH1 0x20 ADD KECCAK256 PUSH1 0x0 SHR PUSH2 0x555 SWAP2 SWAP1 PUSH2 0xDF3 JUMP JUMPDEST PUSH2 0x55F SWAP2 SWAP1 PUSH2 0xDF3 JUMP JUMPDEST PUSH2 0x569 SWAP2 SWAP1 PUSH2 0xDF3 JUMP JUMPDEST SWAP1 POP PUSH1 0x2 SWAP2 POP POP SWAP1 JUMP JUMPDEST PUSH1 0x5 SLOAD DUP2 JUMP JUMPDEST PUSH1 0x4 SLOAD DUP2 JUMP JUMPDEST PUSH1 0x0 SELFBALANCE SWAP1 POP SWAP1 JUMP JUMPDEST PUSH1 0x0 DUP1 SLOAD SWAP1 PUSH2 0x100 EXP SWAP1 DIV PUSH20 0xFFFFFFFFFFFFFFFFFFFFFFFFFFFFFFFFFFFFFFFF AND PUSH20 0xFFFFFFFFFFFFFFFFFFFFFFFFFFFFFFFFFFFFFFFF AND CALLER PUSH20 0xFFFFFFFFFFFFFFFFFFFFFFFFFFFFFFFFFFFFFFFF AND EQ PUSH2 0x615 JUMPI PUSH1 0x40 MLOAD PUSH32 0x8C379A000000000000000000000000000000000000000000000000000000000 DUP2 MSTORE PUSH1 0x4 ADD PUSH2 0x60C SWAP1 PUSH2 0xD1B JUMP JUMPDEST PUSH1 0x40 MLOAD DUP1 SWAP2 SUB SWAP1 REVERT JUMPDEST DUP2 PUSH1 0x2 SWAP1 DUP1 MLOAD SWAP1 PUSH1 0x20 ADD SWAP1 PUSH2 0x62B SWAP3 SWAP2 SWAP1 PUSH2 0x859 JUMP JUMPDEST POP DUP1 PUSH1 0x3 DUP2 SWAP1 SSTORE POP POP POP JUMP JUMPDEST PUSH1 0x60 PUSH1 0x0 DUP1 PUSH1 0x0 SWAP1 SLOAD SWAP1 PUSH2 0x100 EXP SWAP1 DIV PUSH20 0xFFFFFFFFFFFFFFFFFFFFFFFFFFFFFFFFFFFFFFFF AND PUSH20 0xFFFFFFFFFFFFFFFFFFFFFFFFFFFFFFFFFFFFFFFF AND CALLER PUSH20 0xFFFFFFFFFFFFFFFFFFFFFFFFFFFFFFFFFFFFFFFF AND EQ PUSH2 0x6CA JUMPI PUSH1 0x40 MLOAD PUSH32 0x8C379A000000000000000000000000000000000000000000000000000000000 DUP2 MSTORE PUSH1 0x4 ADD PUSH2 0x6C1 SWAP1 PUSH2 0xD1B JUMP JUMPDEST PUSH1 0x40 MLOAD DUP1 SWAP2 SUB SWAP1 REVERT JUMPDEST PUSH1 0x2 PUSH1 0x3 SLOAD DUP2 DUP1 SLOAD PUSH2 0x6DB SWAP1 PUSH2 0xED3 JUMP JUMPDEST DUP1 PUSH1 0x1F ADD PUSH1 0x20 DUP1 SWAP2 DIV MUL PUSH1 0x20 ADD PUSH1 0x40 MLOAD SWAP1 DUP2 ADD PUSH1 0x40 MSTORE DUP1 SWAP3 SWAP2 SWAP1 DUP2 DUP2 MSTORE PUSH1 0x20 ADD DUP3 DUP1 SLOAD PUSH2 0x707 SWAP1 PUSH2 0xED3 JUMP JUMPDEST DUP1 ISZERO PUSH2 0x754 JUMPI DUP1 PUSH1 0x1F LT PUSH2 0x729 JUMPI PUSH2 0x100 DUP1 DUP4 SLOAD DIV MUL DUP4 MSTORE SWAP2 PUSH1 0x20 ADD SWAP2 PUSH2 0x754 JUMP JUMPDEST DUP3 ADD SWAP2 SWAP1 PUSH1 0x0 MSTORE PUSH1 0x20 PUSH1 0x0 KECCAK256 SWAP1 JUMPDEST DUP2 SLOAD DUP2 MSTORE SWAP1 PUSH1 0x1 ADD SWAP1 PUSH1 0x20 ADD DUP1 DUP4 GT PUSH2 0x737 JUMPI DUP3 SWAP1 SUB PUSH1 0x1F AND DUP3 ADD SWAP2 JUMPDEST POP POP POP POP POP SWAP2 POP SWAP2 POP SWAP2 POP SWAP1 SWAP2 JUMP JUMPDEST PUSH1 0x0 DUP1 SLOAD SWAP1 PUSH2 0x100 EXP SWAP1 DIV PUSH20 0xFFFFFFFFFFFFFFFFFFFFFFFFFFFFFFFFFFFFFFFF AND DUP2 JUMP JUMPDEST PUSH1 0x0 PUSH1 0x4 SLOAD SWAP1 POP SWAP1 JUMP JUMPDEST PUSH1 0x0 DUP1 PUSH1 0x0 SWAP1 SLOAD SWAP1 PUSH2 0x100 EXP SWAP1 DIV PUSH20 0xFFFFFFFFFFFFFFFFFFFFFFFFFFFFFFFFFFFFFFFF AND PUSH20 0xFFFFFFFFFFFFFFFFFFFFFFFFFFFFFFFFFFFFFFFF AND CALLER PUSH20 0xFFFFFFFFFFFFFFFFFFFFFFFFFFFFFFFFFFFFFFFF AND EQ PUSH2 0x822 JUMPI PUSH1 0x40 MLOAD PUSH32 0x8C379A000000000000000000000000000000000000000000000000000000000 DUP2 MSTORE PUSH1 0x4 ADD PUSH2 0x819 SWAP1 PUSH2 0xD1B JUMP JUMPDEST PUSH1 0x40 MLOAD DUP1 SWAP2 SUB SWAP1 REVERT JUMPDEST PUSH1 0x1 SLOAD SWAP1 POP SWAP1 JUMP JUMPDEST PUSH1 0x6 PUSH1 0x20 MSTORE DUP2 PUSH1 0x0 MSTORE PUSH1 0x40 PUSH1 0x0 KECCAK256 PUSH1 0x20 MSTORE DUP1 PUSH1 0x0 MSTORE PUSH1 0x40 PUSH1 0x0 KECCAK256 PUSH1 0x0 SWAP2 POP SWAP2 POP SWAP1 SLOAD SWAP1 PUSH2 0x100 EXP SWAP1 DIV PUSH1 0xFF AND DUP2 JUMP JUMPDEST DUP3 DUP1 SLOAD PUSH2 0x865 SWAP1 PUSH2 0xED3 JUMP JUMPDEST SWAP1 PUSH1 0x0 MSTORE PUSH1 0x20 PUSH1 0x0 KECCAK256 SWAP1 PUSH1 0x1F ADD PUSH1 0x20 SWAP1 DIV DUP2 ADD SWAP3 DUP3 PUSH2 0x887 JUMPI PUSH1 0x0 DUP6 SSTORE PUSH2 0x8CE JUMP JUMPDEST DUP3 PUSH1 0x1F LT PUSH2 0x8A0 JUMPI DUP1 MLOAD PUSH1 0xFF NOT AND DUP4 DUP1 ADD OR DUP6 SSTORE PUSH2 0x8CE JUMP JUMPDEST DUP3 DUP1 ADD PUSH1 0x1 ADD DUP6 SSTORE DUP3 ISZERO PUSH2 0x8CE JUMPI SWAP2 DUP3 ADD JUMPDEST DUP3 DUP2 GT ISZERO PUSH2 0x8CD JUMPI DUP3 MLOAD DUP3 SSTORE SWAP2 PUSH1 0x20 ADD SWAP2 SWAP1 PUSH1 0x1 ADD SWAP1 PUSH2 0x8B2 JUMP JUMPDEST JUMPDEST POP SWAP1 POP PUSH2 0x8DB SWAP2 SWAP1 PUSH2 0x8DF JUMP JUMPDEST POP SWAP1 JUMP JUMPDEST JUMPDEST DUP1 DUP3 GT ISZERO PUSH2 0x8F8 JUMPI PUSH1 0x0 DUP2 PUSH1 0x0 SWAP1 SSTORE POP PUSH1 0x1 ADD PUSH2 0x8E0 JUMP JUMPDEST POP SWAP1 JUMP JUMPDEST PUSH1 0x0 PUSH2 0x90F PUSH2 0x90A DUP5 PUSH2 0xD87 JUMP JUMPDEST PUSH2 0xD56 JUMP JUMPDEST SWAP1 POP DUP3 DUP2 MSTORE PUSH1 0x20 DUP2 ADD DUP5 DUP5 DUP5 ADD GT ISZERO PUSH2 0x927 JUMPI PUSH1 0x0 DUP1 REVERT JUMPDEST PUSH2 0x932 DUP5 DUP3 DUP6 PUSH2 0xE91 JUMP JUMPDEST POP SWAP4 SWAP3 POP POP POP JUMP JUMPDEST PUSH1 0x0 DUP2 CALLDATALOAD SWAP1 POP PUSH2 0x949 DUP2 PUSH2 0xFEC JUMP JUMPDEST SWAP3 SWAP2 POP POP JUMP JUMPDEST PUSH1 0x0 DUP3 PUSH1 0x1F DUP4 ADD SLT PUSH2 0x960 JUMPI PUSH1 0x0 DUP1 REVERT JUMPDEST DUP2 CALLDATALOAD PUSH2 0x970 DUP5 DUP3 PUSH1 0x20 DUP7 ADD PUSH2 0x8FC JUMP JUMPDEST SWAP2 POP POP SWAP3 SWAP2 POP POP JUMP JUMPDEST PUSH1 0x0 DUP2 CALLDATALOAD SWAP1 POP PUSH2 0x988 DUP2 PUSH2 0x1003 JUMP JUMPDEST SWAP3 SWAP2 POP POP JUMP JUMPDEST PUSH1 0x0 DUP1 PUSH1 0x40 DUP4 DUP6 SUB SLT ISZERO PUSH2 0x9A1 JUMPI PUSH1 0x0 DUP1 REVERT JUMPDEST PUSH1 0x0 DUP4 ADD CALLDATALOAD PUSH8 0xFFFFFFFFFFFFFFFF DUP2 GT ISZERO PUSH2 0x9BB JUMPI PUSH1 0x0 DUP1 REVERT JUMPDEST PUSH2 0x9C7 DUP6 DUP3 DUP7 ADD PUSH2 0x94F JUMP JUMPDEST SWAP3 POP POP PUSH1 0x20 PUSH2 0x9D8 DUP6 DUP3 DUP7 ADD PUSH2 0x979 JUMP JUMPDEST SWAP2 POP POP SWAP3 POP SWAP3 SWAP1 POP JUMP JUMPDEST PUSH1 0x0 DUP1 PUSH1 0x40 DUP4 DUP6 SUB SLT ISZERO PUSH2 0x9F5 JUMPI PUSH1 0x0 DUP1 REVERT JUMPDEST PUSH1 0x0 PUSH2 0xA03 DUP6 DUP3 DUP7 ADD PUSH2 0x979 JUMP JUMPDEST SWAP3 POP POP PUSH1 0x20 PUSH2 0xA14 DUP6 DUP3 DUP7 ADD PUSH2 0x93A JUMP JUMPDEST SWAP2 POP POP SWAP3 POP SWAP3 SWAP1 POP JUMP JUMPDEST PUSH2 0xA27 DUP2 PUSH2 0xE49 JUMP JUMPDEST DUP3 MSTORE POP POP JUMP JUMPDEST PUSH2 0xA36 DUP2 PUSH2 0xE5B JUMP JUMPDEST DUP3 MSTORE POP POP JUMP JUMPDEST PUSH1 0x0 PUSH2 0xA47 DUP3 PUSH2 0xDCC JUMP JUMPDEST PUSH2 0xA51 DUP2 DUP6 PUSH2 0xDE2 JUMP JUMPDEST SWAP4 POP PUSH2 0xA61 DUP2 DUP6 PUSH1 0x20 DUP7 ADD PUSH2 0xEA0 JUMP JUMPDEST PUSH2 0xA6A DUP2 PUSH2 0xFDB JUMP JUMPDEST DUP5 ADD SWAP2 POP POP SWAP3 SWAP2 POP POP JUMP JUMPDEST PUSH1 0x0 DUP2 SLOAD PUSH2 0xA82 DUP2 PUSH2 0xED3 JUMP JUMPDEST PUSH2 0xA8C DUP2 DUP7 PUSH2 0xDE2 JUMP JUMPDEST SWAP5 POP PUSH1 0x1 DUP3 AND PUSH1 0x0 DUP2 EQ PUSH2 0xAA7 JUMPI PUSH1 0x1 DUP2 EQ PUSH2 0xAB9 JUMPI PUSH2 0xAEC JUMP JUMPDEST PUSH1 0xFF NOT DUP4 AND DUP7 MSTORE PUSH1 0x20 DUP7 ADD SWAP4 POP PUSH2 0xAEC JUMP JUMPDEST PUSH2 0xAC2 DUP6 PUSH2 0xDB7 JUMP JUMPDEST PUSH1 0x0 JUMPDEST DUP4 DUP2 LT ISZERO PUSH2 0xAE4 JUMPI DUP2 SLOAD DUP2 DUP10 ADD MSTORE PUSH1 0x1 DUP3 ADD SWAP2 POP PUSH1 0x20 DUP2 ADD SWAP1 POP PUSH2 0xAC5 JUMP JUMPDEST DUP1 DUP9 ADD SWAP6 POP POP POP JUMPDEST POP POP POP SWAP3 SWAP2 POP POP JUMP JUMPDEST PUSH1 0x0 PUSH2 0xB02 PUSH1 0x16 DUP4 PUSH2 0xDE2 JUMP JUMPDEST SWAP2 POP PUSH32 0x6D757374206265207468652066697273742074696D6500000000000000000000 PUSH1 0x0 DUP4 ADD MSTORE PUSH1 0x20 DUP3 ADD SWAP1 POP SWAP2 SWAP1 POP JUMP JUMPDEST PUSH1 0x0 PUSH2 0xB42 PUSH1 0x6 DUP4 PUSH2 0xDE2 JUMP JUMPDEST SWAP2 POP PUSH32 0x4661696C65640000000000000000000000000000000000000000000000000000 PUSH1 0x0 DUP4 ADD MSTORE PUSH1 0x20 DUP3 ADD SWAP1 POP SWAP2 SWAP1 POP JUMP JUMPDEST PUSH1 0x0 PUSH2 0xB82 PUSH1 0x11 DUP4 PUSH2 0xDE2 JUMP JUMPDEST SWAP2 POP PUSH32 0x4D75737420626520302E30314574686572000000000000000000000000000000 PUSH1 0x0 DUP4 ADD MSTORE PUSH1 0x20 DUP3 ADD SWAP1 POP SWAP2 SWAP1 POP JUMP JUMPDEST PUSH1 0x0 PUSH2 0xBC2 PUSH1 0x11 DUP4 PUSH2 0xDE2 JUMP JUMPDEST SWAP2 POP PUSH32 0x596F7520617265206E6F74204F776E6572000000000000000000000000000000 PUSH1 0x0 DUP4 ADD MSTORE PUSH1 0x20 DUP3 ADD SWAP1 POP SWAP2 SWAP1 POP JUMP JUMPDEST PUSH1 0x0 PUSH2 0xC02 PUSH1 0x0 DUP4 PUSH2 0xDD7 JUMP JUMPDEST SWAP2 POP PUSH1 0x0 DUP3 ADD SWAP1 POP SWAP2 SWAP1 POP JUMP JUMPDEST PUSH2 0xC18 DUP2 PUSH2 0xE87 JUMP JUMPDEST DUP3 MSTORE POP POP JUMP JUMPDEST PUSH1 0x0 PUSH2 0xC29 DUP3 PUSH2 0xBF5 JUMP JUMPDEST SWAP2 POP DUP2 SWAP1 POP SWAP2 SWAP1 POP JUMP JUMPDEST PUSH1 0x0 PUSH1 0x20 DUP3 ADD SWAP1 POP PUSH2 0xC48 PUSH1 0x0 DUP4 ADD DUP5 PUSH2 0xA1E JUMP JUMPDEST SWAP3 SWAP2 POP POP JUMP JUMPDEST PUSH1 0x0 PUSH1 0x20 DUP3 ADD SWAP1 POP PUSH2 0xC63 PUSH1 0x0 DUP4 ADD DUP5 PUSH2 0xA2D JUMP JUMPDEST SWAP3 SWAP2 POP POP JUMP JUMPDEST PUSH1 0x0 PUSH1 0x40 DUP3 ADD SWAP1 POP DUP2 DUP2 SUB PUSH1 0x0 DUP4 ADD MSTORE PUSH2 0xC83 DUP2 DUP6 PUSH2 0xA3C JUMP JUMPDEST SWAP1 POP PUSH2 0xC92 PUSH1 0x20 DUP4 ADD DUP5 PUSH2 0xC0F JUMP JUMPDEST SWAP4 SWAP3 POP POP POP JUMP JUMPDEST PUSH1 0x0 PUSH1 0x20 DUP3 ADD SWAP1 POP DUP2 DUP2 SUB PUSH1 0x0 DUP4 ADD MSTORE PUSH2 0xCB3 DUP2 DUP5 PUSH2 0xA75 JUMP JUMPDEST SWAP1 POP SWAP3 SWAP2 POP POP JUMP JUMPDEST PUSH1 0x0 PUSH1 0x20 DUP3 ADD SWAP1 POP DUP2 DUP2 SUB PUSH1 0x0 DUP4 ADD MSTORE PUSH2 0xCD4 DUP2 PUSH2 0xAF5 JUMP JUMPDEST SWAP1 POP SWAP2 SWAP1 POP JUMP JUMPDEST PUSH1 0x0 PUSH1 0x20 DUP3 ADD SWAP1 POP DUP2 DUP2 SUB PUSH1 0x0 DUP4 ADD MSTORE PUSH2 0xCF4 DUP2 PUSH2 0xB35 JUMP JUMPDEST SWAP1 POP SWAP2 SWAP1 POP JUMP JUMPDEST PUSH1 0x0 PUSH1 0x20 DUP3 ADD SWAP1 POP DUP2 DUP2 SUB PUSH1 0x0 DUP4 ADD MSTORE PUSH2 0xD14 DUP2 PUSH2 0xB75 JUMP JUMPDEST SWAP1 POP SWAP2 SWAP1 POP JUMP JUMPDEST PUSH1 0x0 PUSH1 0x20 DUP3 ADD SWAP1 POP DUP2 DUP2 SUB PUSH1 0x0 DUP4 ADD MSTORE PUSH2 0xD34 DUP2 PUSH2 0xBB5 JUMP JUMPDEST SWAP1 POP SWAP2 SWAP1 POP JUMP JUMPDEST PUSH1 0x0 PUSH1 0x20 DUP3 ADD SWAP1 POP PUSH2 0xD50 PUSH1 0x0 DUP4 ADD DUP5 PUSH2 0xC0F JUMP JUMPDEST SWAP3 SWAP2 POP POP JUMP JUMPDEST PUSH1 0x0 PUSH1 0x40 MLOAD SWAP1 POP DUP2 DUP2 ADD DUP2 DUP2 LT PUSH8 0xFFFFFFFFFFFFFFFF DUP3 GT OR ISZERO PUSH2 0xD7D JUMPI PUSH2 0xD7C PUSH2 0xFAC JUMP JUMPDEST JUMPDEST DUP1 PUSH1 0x40 MSTORE POP SWAP2 SWAP1 POP JUMP JUMPDEST PUSH1 0x0 PUSH8 0xFFFFFFFFFFFFFFFF DUP3 GT ISZERO PUSH2 0xDA2 JUMPI PUSH2 0xDA1 PUSH2 0xFAC JUMP JUMPDEST JUMPDEST PUSH1 0x1F NOT PUSH1 0x1F DUP4 ADD AND SWAP1 POP PUSH1 0x20 DUP2 ADD SWAP1 POP SWAP2 SWAP1 POP JUMP JUMPDEST PUSH1 0x0 DUP2 SWAP1 POP DUP2 PUSH1 0x0 MSTORE PUSH1 0x20 PUSH1 0x0 KECCAK256 SWAP1 POP SWAP2 SWAP1 POP JUMP JUMPDEST PUSH1 0x0 DUP2 MLOAD SWAP1 POP SWAP2 SWAP1 POP JUMP JUMPDEST PUSH1 0x0 DUP2 SWAP1 POP SWAP3 SWAP2 POP POP JUMP JUMPDEST PUSH1 0x0 DUP3 DUP3 MSTORE PUSH1 0x20 DUP3 ADD SWAP1 POP SWAP3 SWAP2 POP POP JUMP JUMPDEST PUSH1 0x0 PUSH2 0xDFE DUP3 PUSH2 0xE87 JUMP JUMPDEST SWAP2 POP PUSH2 0xE09 DUP4 PUSH2 0xE87 JUMP JUMPDEST SWAP3 POP DUP3 PUSH32 0xFFFFFFFFFFFFFFFFFFFFFFFFFFFFFFFFFFFFFFFFFFFFFFFFFFFFFFFFFFFFFFFF SUB DUP3 GT ISZERO PUSH2 0xE3E JUMPI PUSH2 0xE3D PUSH2 0xF4E JUMP JUMPDEST JUMPDEST DUP3 DUP3 ADD SWAP1 POP SWAP3 SWAP2 POP POP JUMP JUMPDEST PUSH1 0x0 PUSH2 0xE54 DUP3 PUSH2 0xE67 JUMP JUMPDEST SWAP1 POP SWAP2 SWAP1 POP JUMP JUMPDEST PUSH1 0x0 DUP2 ISZERO ISZERO SWAP1 POP SWAP2 SWAP1 POP JUMP JUMPDEST PUSH1 0x0 PUSH20 0xFFFFFFFFFFFFFFFFFFFFFFFFFFFFFFFFFFFFFFFF DUP3 AND SWAP1 POP SWAP2 SWAP1 POP JUMP JUMPDEST PUSH1 0x0 DUP2 SWAP1 POP SWAP2 SWAP1 POP JUMP JUMPDEST DUP3 DUP2 DUP4 CALLDATACOPY PUSH1 0x0 DUP4 DUP4 ADD MSTORE POP POP POP JUMP JUMPDEST PUSH1 0x0 JUMPDEST DUP4 DUP2 LT ISZERO PUSH2 0xEBE JUMPI DUP1 DUP3 ADD MLOAD DUP2 DUP5 ADD MSTORE PUSH1 0x20 DUP2 ADD SWAP1 POP PUSH2 0xEA3 JUMP JUMPDEST DUP4 DUP2 GT ISZERO PUSH2 0xECD JUMPI PUSH1 0x0 DUP5 DUP5 ADD MSTORE JUMPDEST POP POP POP POP JUMP JUMPDEST PUSH1 0x0 PUSH1 0x2 DUP3 DIV SWAP1 POP PUSH1 0x1 DUP3 AND DUP1 PUSH2 0xEEB JUMPI PUSH1 0x7F DUP3 AND SWAP2 POP JUMPDEST PUSH1 0x20 DUP3 LT DUP2 EQ ISZERO PUSH2 0xEFF JUMPI PUSH2 0xEFE PUSH2 0xF7D JUMP JUMPDEST JUMPDEST POP SWAP2 SWAP1 POP JUMP JUMPDEST PUSH1 0x0 PUSH2 0xF10 DUP3 PUSH2 0xE87 JUMP JUMPDEST SWAP2 POP PUSH32 0xFFFFFFFFFFFFFFFFFFFFFFFFFFFFFFFFFFFFFFFFFFFFFFFFFFFFFFFFFFFFFFFF DUP3 EQ ISZERO PUSH2 0xF43 JUMPI PUSH2 0xF42 PUSH2 0xF4E JUMP JUMPDEST JUMPDEST PUSH1 0x1 DUP3 ADD SWAP1 POP SWAP2 SWAP1 POP JUMP JUMPDEST PUSH32 0x4E487B7100000000000000000000000000000000000000000000000000000000 PUSH1 0x0 MSTORE PUSH1 0x11 PUSH1 0x4 MSTORE PUSH1 0x24 PUSH1 0x0 REVERT JUMPDEST PUSH32 0x4E487B7100000000000000000000000000000000000000000000000000000000 PUSH1 0x0 MSTORE PUSH1 0x22 PUSH1 0x4 MSTORE PUSH1 0x24 PUSH1 0x0 REVERT JUMPDEST PUSH32 0x4E487B7100000000000000000000000000000000000000000000000000000000 PUSH1 0x0 MSTORE PUSH1 0x41 PUSH1 0x4 MSTORE PUSH1 0x24 PUSH1 0x0 REVERT JUMPDEST PUSH1 0x0 PUSH1 0x1F NOT PUSH1 0x1F DUP4 ADD AND SWAP1 POP SWAP2 SWAP1 POP JUMP JUMPDEST PUSH2 0xFF5 DUP2 PUSH2 0xE49 JUMP JUMPDEST DUP2 EQ PUSH2 0x1000 JUMPI PUSH1 0x0 DUP1 REVERT JUMPDEST POP JUMP JUMPDEST PUSH2 0x100C DUP2 PUSH2 0xE87 JUMP JUMPDEST DUP2 EQ PUSH2 0x1017 JUMPI PUSH1 0x0 DUP1 REVERT JUMPDEST POP JUMP INVALID LOG2 PUSH5 0x6970667358 0x22 SLT KECCAK256 GASLIMIT PUSH3 0x270D00 TIMESTAMP 0xB4 DELEGATECALL ADD PUSH14 0xE5E0A241B67C7B8505A1D8814E3D SLT 0xB6 0x5C PUSH28 0xEAF8858864736F6C6343000800003300000000000000000000000000 "
				},
				"gasEstimates": {
					"creation": {
						"codeDepositCost": "835200",
						"executionCost": "infinite",
						"totalCost": "infinite"
					},
					"external": {
						"getRound()": "1181",
						"getSecretKey()": "infinite",
						"getWinnerNumber()": "2073",
						"getbalance()": "384",
						"owner()": "1233",
						"paidAddressList(uint256,address)": "1875",
						"playNumber()": "1130",
						"round()": "1152",
						"setSecretKey(string,uint256)": "infinite"
					},
					"internal": {
						"randomNumber()": "infinite"
					}
				},
				"methodIdentifiers": {
					"getRound()": "9f8743f7",
					"getSecretKey()": "79ed40bc",
					"getWinnerNumber()": "a86d2e19",
					"getbalance()": "4d9b3d5d",
					"owner()": "8da5cb5b",
					"paidAddressList(uint256,address)": "cf66b989",
					"playNumber()": "0df516d8",
					"round()": "146ca531",
					"setSecretKey(string,uint256)": "5ef5cc89"
				}
			},
			"storageLayout": {
				"storage": [
					{
						"astId": 5,
						"contract": "contracts/Lottery.sol:Random",
						"label": "owner",
						"offset": 0,
						"slot": "0",
						"type": "t_address"
					},
					{
						"astId": 8,
						"contract": "contracts/Lottery.sol:Random",
						"label": "winnerNumber",
						"offset": 0,
						"slot": "1",
						"type": "t_uint256"
					},
					{
						"astId": 10,
						"contract": "contracts/Lottery.sol:Random",
						"label": "key1",
						"offset": 0,
						"slot": "2",
						"type": "t_string_storage"
					},
					{
						"astId": 12,
						"contract": "contracts/Lottery.sol:Random",
						"label": "key2",
						"offset": 0,
						"slot": "3",
						"type": "t_uint256"
					},
					{
						"astId": 15,
						"contract": "contracts/Lottery.sol:Random",
						"label": "round",
						"offset": 0,
						"slot": "4",
						"type": "t_uint256"
					},
					{
						"astId": 18,
						"contract": "contracts/Lottery.sol:Random",
						"label": "playNumber",
						"offset": 0,
						"slot": "5",
						"type": "t_uint256"
					},
					{
						"astId": 24,
						"contract": "contracts/Lottery.sol:Random",
						"label": "paidAddressList",
						"offset": 0,
						"slot": "6",
						"type": "t_mapping(t_uint256,t_mapping(t_address,t_bool))"
					}
				],
				"types": {
					"t_address": {
						"encoding": "inplace",
						"label": "address",
						"numberOfBytes": "20"
					},
					"t_bool": {
						"encoding": "inplace",
						"label": "bool",
						"numberOfBytes": "1"
					},
					"t_mapping(t_address,t_bool)": {
						"encoding": "mapping",
						"key": "t_address",
						"label": "mapping(address => bool)",
						"numberOfBytes": "32",
						"value": "t_bool"
					},
					"t_mapping(t_uint256,t_mapping(t_address,t_bool))": {
						"encoding": "mapping",
						"key": "t_uint256",
						"label": "mapping(uint256 => mapping(address => bool))",
						"numberOfBytes": "32",
						"value": "t_mapping(t_address,t_bool)"
					},
					"t_string_storage": {
						"encoding": "bytes",
						"label": "string",
						"numberOfBytes": "32"
					},
					"t_uint256": {
						"encoding": "inplace",
						"label": "uint256",
						"numberOfBytes": "32"
					}
				}
			},
			"userdoc": {
				"kind": "user",
				"methods": {
					"getRound()": {
						"notice": "라운드 확인"
					},
					"getSecretKey()": {
						"notice": "비밀키 확인 -- 관리자용"
					},
					"getWinnerNumber()": {
						"notice": "우승숫자 확인 -- 관리자용"
					},
					"getbalance()": {
						"notice": "축적된 상금 확인"
					},
					"owner()": {
						"notice": "참여자 순서(playNumber) 값이 randomNumber()를 통해 생성한 WinnerNumber와 같은면 우승자 and 이더를 받는다"
					},
					"setSecretKey(string,uint256)": {
						"notice": "비밀키 설정(랜덤함수 만드는데 쓰임) -- 관리자용"
					}
				},
				"version": 1
			}
		}
	}
}